:100000000C9473000C94D0040C94A9040C949B00E1
:100010000C949B000C949B000C949B000C949B00F4
:100020000C949B000C949B000C949B000C949B00E4
:100030000C949B000C949B000C949B000C949B00D4
:100040000C945F040C949B000C941D050C94F70415
:100050000C949B000C949B000C949B000C949B00B4
:100060000C949B000C949B000000000023002600D1
:1000700029005A582050532F32204B6579626F6106
:10008000726420636F6E74726F6C6C65722076316F
:100090002E300000000000240027002A000000008D
:1000A00000250028002B00040404040404040402B6
:1000B0000202020202030303030303010204081005
:1000C00020408001020408102001020408102000D2
:1000D0000000080002010000030407000000000007
:1000E000000000004F0511241FBECFEFD8E0DEBF97
:1000F000CDBF11E0A0E0B1E0E4EDF8E102C0059071
:100100000D92AA31B107D9F722E0AAE1B1E001C00E
:100110001D92A931B207E1F710E0C3E7D0E004C0B7
:100120002197FE010E945D0CC237D107C9F70E94DA
:1001300082050C94680C0C940000833081F028F444
:10014000813099F08230A1F008958730A9F088308D
:10015000B9F08430D1F4809180008F7D03C080910C
:1001600080008F7780938000089584B58F7702C0D8
:1001700084B58F7D84BD08958091B0008F7703C0D2
:100180008091B0008F7D8093B00008951F93CF932E
:10019000DF93282F30E0F901E153FF4F8491F901FB
:1001A000E554FF4FD491F901E955FF4FC491CC2399
:1001B000C1F0162F81110E949D00EC2FF0E0EE0F90
:1001C000FF1FE356FF4FA591B4919FB7F89411110B
:1001D00004C08C91D095D82302C0EC91DE2BDC9327
:1001E0009FBFDF91CF911F910895CF93DF9390E050
:1001F000FC01E554FF4F2491FC01E955FF4F849128
:10020000882361F190E0880F991FFC01ED56FF4FA4
:10021000C591D491FC01E356FF4FA591B4916111B2
:1002200009C09FB7F8948881209582238883EC9138
:100230002E230BC0623061F49FB7F8948881322F6F
:10024000309583238883EC912E2B2C939FBF06C07F
:100250008FB7F894E8812E2B28838FBFDF91CF9141
:1002600008953FB7F8948091760190917701A0911D
:100270007801B091790126B5A89B05C02F3F19F0F0
:100280000196A11DB11D3FBFBA2FA92F982F882716
:10029000820F911DA11DB11DBC01CD0142E0660F71
:1002A000771F881F991F4A95D1F708958F929F92C3
:1002B000AF92BF92CF92DF92EF92FF926B017C01DF
:1002C0000E9431014B015C01C114D104E104F1042D
:1002D000F1F00E943101DC01CB0188199909AA09CA
:1002E000BB09883E9340A105B10570F321E0C21A15
:1002F000D108E108F10888EE880E83E0981EA11C61
:10030000B11CC114D104E104F10419F7DDCFFF9051
:10031000EF90DF90CF90BF90AF909F908F90089517
:100320000895CF92DF92EF92FF920F931F93CF9396
:10033000DF936C017A018B01C0E0D0E0CE15DF05C0
:1003400081F0D8016D918D01D601ED91FC91019064
:10035000F081E02DC6010995892B11F02196EECF91
:100360007E01C701DF91CF911F910F91FF90EF9018
:10037000DF90CF900895089580E090E00895FC010B
:10038000538D448D252F30E0842F90E0821B930BFA
:10039000541710F0CF96089501970895FC01918DA0
:1003A000828D981761F0828DDF01A80FB11D5D96D7
:1003B0008C91928D9F5F9F73928F90E008958FEF45
:1003C0009FEF0895FC01918D828D981731F0828DF9
:1003D000E80FF11D858D90E008958FEF9FEF089550
:1003E000FC01918D228D892F90E0805C9F4F821BB4
:1003F00091098F73992708958AE791E00E94F0018F
:1004000021E0892B09F420E0822F0895FC01848DDE
:10041000DF01A80FB11DA35ABF4F2C91848D90E02E
:1004200001968F739927848FA689B7892C93A08909
:10043000B1898C91837080648C93938D848D981393
:1004400006C00288F389E02D80818F7D8083089526
:10045000EF92FF920F931F93CF93DF93EC0181E014
:10046000888F9B8D8C8D981305C0E889F9898081D0
:1004700085FD26C0F62E0B8D10E00F5F1F4F0F730A
:100480001127E02E8C8DE8120CC00FB607FCFACFB6
:10049000E889F989808185FFF5CFCE010E940602A7
:1004A000F1CF8B8DFE01E80FF11DE35AFF4FF08273
:1004B0009FB7F8940B8FEA89FB89808180620AC01C
:1004C0009FB7F894EE89FF896083E889F989808174
:1004D0008370806480839FBF81E090E0DF91CF9143
:1004E0001F910F91FF90EF900895CF93DF93EC0150
:1004F000888D8823C9F0EA89FB89808185FD05C044
:10050000A889B9898C9186FD0FC00FB607FCF5CF7D
:10051000808185FFF2CFA889B9898C9185FFEDCFC5
:10052000CE010E940602E7CFDF91CF91089580E0CF
:1005300090E0892B29F00E94FC0181110C940000AD
:1005400008959091340180913301981749F080917A
:10055000340190913301891B87FF03C0805F0895A8
:1005600080E00895CF92DF92EF92FF920F931F9356
:10057000CF93DF932091220130E0F901E153FF4F47
:100580008491F901E554FF4FD491F901E955FF4FEA
:10059000C491CC2379F081110E949D00EC2FF0E0F2
:1005A000EE0FFF1FE859FF4FA591B491EC91ED2399
:1005B00091E009F490E08FB7F89440917201509166
:1005C000730160917401709175018FBF00911D01DD
:1005D00010911E0120911F01309120016A017B01C1
:1005E000C01AD10AE20AF30A970186010B3F1105EE
:1005F0002105310510F010921C0140931D0150930C
:100600001E0160931F017093200180911C018F5F78
:1006100080931C018A3048F4823060F48130E9F51F
:1006200010921B0110921A013AC08A30B1F08B303F
:10063000E9F033C080911A01890F80931A0120914B
:100640001B0130E035952795911102C080E001C073
:1006500080E8282B20931B0122C080911A01817011
:10066000981301C08DEF80931A0119C080911A016F
:100670008D3F98F4809133018F5F803108F080E0E6
:1006800090913401891749F0E82FF0E090911B0117
:10069000ED5DFE4F90838093330110921C01DF913A
:1006A000CF911F910F91FF90EF90DF90CF90089521
:1006B000EAE3F1E09F012A5331402817390714F487
:1006C0001192F8CF0895CF92DF92EF92FF921F938D
:1006D000CF93DF9310E0D0E0C12CD12C7601C394EE
:1006E000212F80E090E0C0E02C32A8F4E22FF0E06F
:1006F000E65CFE4F3081B701A601082E04C0440F0E
:10070000551F661F771F0A94D2F7332311F0C42BAD
:1007100002C04095C42301962F5F8830910521F7D0
:10072000DF5F90911702809118029CBD8DBD60E043
:100730008AE00E94C600DEBD00000DB407FEFDCFBA
:100740008EB5CEBD00000DB407FEFDCF8EB561E0C5
:100750008AE00E94C600185FD63009F0C1CFDF9151
:10076000CF911F91FF90EF90DF90CF900895CF939E
:10077000DF9388E290E00E945803CAE3D1E081E071
:1007800088A70E94630364EF71E080E090E00E941C
:10079000560118A6DF91CF910C946303FF920F933B
:1007A0001F93CF93DF93C82F88E290E00E945803F5
:1007B0000E94630364E170E080E090E00E945601D3
:1007C0000AE311E0FF24F394F801F0820E9463032E
:1007D00064E170E080E090E00E945601F801F78645
:1007E0000E94630364E170E080E090E00E945601A3
:1007F000F80117860E94630364E170E080E090E0F6
:100800000E945601D0E0C65CDE4FF8820E9463036E
:1008100064E170E080E090E00E945601F8011082EF
:1008200018820E94630364E170E080E090E0DF9151
:10083000CF911F910F91FF900C9456010E94630C71
:100840000F931F93CF938C01611102C0C4E101C0CB
:10085000CAE0C8010E94470CC81739F06C2FC801C4
:10086000CF911F910F910C944F0CCF911F910F912D
:1008700008950F931F93CF93DF938C01C62F0E948F
:10088000470C8A3011F0843129F461E08A3089F014
:1008900060E00FC0C11102C0D4E101C0DAE0C801BC
:1008A0000E94470CD81721F06D2FC8010E944F0CF1
:1008B0006C2F862FDF91CF911F910F9108951F927A
:1008C0000F920FB60F9211242F933F938F939F9304
:1008D000AF93BF938091720190917301A0917401C5
:1008E000B09175013091710123E0230F2D3720F471
:1008F0000196A11DB11D05C026E8230F0296A11D7A
:10090000B11D209371018093720190937301A093A4
:100910007401B09375018091760190917701A09157
:100920007801B09179010196A11DB11D80937601E6
:1009300090937701A0937801B0937901BF91AF9123
:100940009F918F913F912F910F900FBE0F901F900D
:1009500018951F920F920FB60F9211242F933F9369
:100960004F935F936F937F938F939F93AF93BF93B7
:10097000EF93FF93E0910201F09103010995FF913C
:10098000EF91BF91AF919F918F917F916F915F9107
:100990004F913F912F910F900FBE0F901F90189580
:1009A0001F920F920FB60F9211242F933F934F93E4
:1009B0005F936F937F938F939F93AF93BF93EF93C7
:1009C000FF93E0910001F09101010995FF91EF91F2
:1009D000BF91AF919F918F917F916F915F914F9157
:1009E0003F912F910F900FBE0F901F9018951F925F
:1009F0000F920FB60F9211242F933F934F935F9353
:100A00006F937F938F939F93AF93BF93EF93FF93D6
:100A10008AE791E00E940602FF91EF91BF91AF91AA
:100A20009F918F917F916F915F914F913F912F9106
:100A30000F900FBE0F901F9018951F920F920FB638
:100A40000F9211242F938F939F93EF93FF93E09135
:100A50008A01F0918B018081E0919001F0919101E8
:100A600082FD12C09081809193018F5F8F732091DE
:100A70009401821751F0E0919301F0E0E658FE4FA7
:100A8000958F8093930101C08081FF91EF919F9199
:100A90008F912F910F900FBE0F901F901895EAE73E
:100AA000F1E01382128288EE93E0A0E0B0E084834C
:100AB0009583A683B78388E091E09183808385EC5A
:100AC00090E09587848784EC90E09787868780EC18
:100AD00090E0918B808B81EC90E0938B828B82EC09
:100AE00090E0958B848B86EC90E0978B868B118EB3
:100AF000128E138E148EE7E1F2E080E5808381E0B0
:100B000081830895789484B5826084BD84B58160C2
:100B100084BD85B5826085BD85B5816085BD8091C8
:100B20006E00816080936E00109281008091810040
:100B30008260809381008091810081608093810038
:100B4000809180008160809380008091B1008460FA
:100B50008093B1008091B00081608093B00080915B
:100B60007A00846080937A0080917A00826080931A
:100B70007A0080917A00816080937A0080917A0077
:100B8000806880937A001092C100E0918A01F09110
:100B90008B0182E08083E0918601F09187011082D1
:100BA000E0918801F091890180E1808310929201A7
:100BB000E0918E01F0918F0186E08083E0918C01BD
:100BC000F0918D01808180618083E0918C01F091B2
:100BD0008D01808188608083E0918C01F0918D018E
:100BE000808180688083E0918C01F0918D0180810B
:100BF0008F7D80838AE791E00E947502CFB7F894D9
:100C000080912101811127C0E1EBF0E08491E5ECB6
:100C1000F0E09491E82FF0E0EE0FFF1FED56FF4F4C
:100C2000A591B491EC91E92321F461E08AE00E945E
:100C3000C60061E08AE00E94F5008CB580618CBD41
:100C40008CB580648CBD61E08DE00E94F50061E0B0
:100C50008BE00E94F500809121018F5F809321013C
:100C6000CFBF61E08AE00E94F50061E08AE00E9467
:100C7000C60061E08EE00E94F50061E08FE00E9416
:100C8000F50061E080E10E94F50061E081E10E94F1
:100C9000F50061E08EE00E94C60061E08FE00E94F6
:100CA000C60060E080E10E94C60060E081E10E9431
:100CB000C60062E083E00E94F50062E082E00E94EC
:100CC000F5008CE290E00E94580360916C0180E096
:100CD00090E00E94390480936C0160916B0181E087
:100CE00090E00E943904C82F80936B0160916C01E1
:100CF000609363018093650180E10E94C6006C2FC0
:100D000081E10E94C600C2E7D0E0FE01649161115A
:100D10002BC042E050E066E171E08AE791E00E947A
:100D200091010E94B70382E08093220162E083E098
:100D30000E94F50062E082E00E94F500109233010B
:100D40001092340182EB92E09093030180930201B0
:100D500080916900837F886080936900E99A60E0F0
:100D60008FE00E94C60046C08AE791E00E942802F8
:100D70002196892B51F6CDCF0E94A10281114AC044
:100D80008FEFC82FD0E0C0926D01D0926E01E0923B
:100D90006F01F092700161E08FE00E94C600C03EDA
:100DA000D10509F04BC081E080936A010E94630382
:100DB00080916D0190916E01A0916F01B0917001D1
:100DC000C81AD90AEA0AFB0A88ECC816D104E10459
:100DD000F10470F060E08FE00E94C60060916C0149
:100DE00080E10E94C60060916B0181E10E94C60013
:100DF0000E9497028FB7F894C0907201D09073014F
:100E0000E0907401F09075018FBF0E94A1028823C9
:100E100069F2B2CFE091340180913301E81709F40F
:100E2000AFCFEF5FE03108F0E0E0E0933401F0E0B5
:100E3000ED5DFE4F80818111A4CFA2CFC13ED105CF
:100E400031F481E080936A0180936901AFCFC03FA4
:100E5000D10541F480916801811104C081E0809343
:100E60006801A4CF80916A01811104C08091690159
:100E7000882319F080E091E002C080E090E01092B9
:100E80006701109266018C0F9D1F8934910509F44A
:100E900076C30CF0F9C08A32910509F4DBC20CF07C
:100EA00078C08B31910509F4C0C2CCF5823191052F
:100EB00009F4F6C1ECF48D30910509F420C424F452
:100EC000069709F463C475C48E30910509F4EFC325
:100ED000419709F06EC49091680181E08927809361
:100EE000490180933A01809337018093660161C480
:100EF0008531910509F48BC224F4449709F4D9C1D2
:100F000058C48631910509F4C8C24A9709F051C402
:100F10009091680181E08927809342014AC482321E
:100F2000910509F4A5C2A4F48D31910509F499C283
:100F30000CF420C28E31910509F4B6C2819709F0F4
:100F400038C49091680181E089278093520131C4AF
:100F50008532910509F4B6C274F48332910509F41F
:100F600017C2849709F025C49091680181E0892710
:100F700080934C011EC48632910509F49CC2899766
:100F800009F017C49091680181E08927809341019D
:100F900010C48A33910509F425C2D4F58133910533
:100FA00009F427C2A4F48C32910509F445C20CF46B
:100FB000F6C18D32910509F431C28E9709F0F9C35B
:100FC0009091680181E0892780935D01F2C38433A9
:100FD000910509F4EBC174F48233910509F4D1C190
:100FE000C39709F0E6C39091680181E08927809357
:100FF0006001DFC38533910509F441C2C69709F04A
:10100000D8C39091680181E0892780935E01D1C3A4
:101010008134910509F49DC2A4F48C33910509F43F
:1010200012C20CF4CAC18D33910509F452C2CE9795
:1010300009F0BFC39091680181E0892780934E0138
:10104000B8C38434910509F4DBC17CF48234910582
:1010500009F4BAC18334910509F0ABC390916801DA
:1010600081E0892780934F01A4C38534910509F459
:101070000DC28634910509F09CC39091680181E00E
:1010800089278093460195C38437910509F436C2B8
:101090000CF077C08A35910509F465C18CF58E3462
:1010A000910509F4EEC2ACF48B34910509F493C1B7
:1010B0000CF4ADC28C34910509F477C28D349105DE
:1010C00009F077C39091680181E0892780933F01FF
:1010D00070C38535910509F4BEC24CF48235910583
:1010E00009F421C28435910509F475C262C38835BB
:1010F000910509F40FC38935910509F4D1C059C38D
:101100008B36910509F4F3C1CCF48D35910509F4C2
:1011100094C22CF48B35910509F46BC24AC3863610
:10112000910509F413C18936910509F042C39091E4
:10113000680181E0892780933D013BC38137910598
:1011400009F41DC27CF48C36910509F4DEC18037A8
:10115000910509F02EC39091680181E08927809361
:101160003E0127C38237910509F4BAC1833791053F
:1011700009F01FC39091680181E0892780935D0188
:1011800018C38431F1E09F0709F493C0C4F58B378D
:10119000910509F4A2C2ACF48637910509F4CBC0DD
:1011A0000CF4BAC18937910509F4A0C28A379105B8
:1011B00009F0FFC29091680181E0892780934D0179
:1011C000F8C28E37910509F4BBC27CF48C379105C7
:1011D00009F47AC28D37910509F0EBC2909168014C
:1011E00081E0892780934601E4C28131E1E09E07D6
:1011F00009F468C08231914009F4B5C2DAC281377E
:1012000021E0920709F46BC0ECF48A35F1E09F0706
:1012100009F4A9C02CF48A34914009F4F8C1C9C278
:101220008B36F1E09F0709F47BC08037914009F0CD
:10123000C0C29091680181E0892780934901809321
:101240003B01B7C28537E1E09E0709F453C0A4F41F
:10125000823721E0920709F458C08437914009F0A1
:10126000A8C29091680181E0892780933A01809318
:101270004E01809366019DC28A37F1E09F0709F411
:1012800054C28D37914009F094C29091680181E079
:10129000892780933A0180934D018093660189C22A
:1012A0009091680181E0892780933A018093390108
:1012B00080C29091680181E08927809349018093E1
:1012C000380177C29091680181E0892780934901B4
:1012D00080933A0180933701809366016AC29091AE
:1012E000680181E0892780934901809352018093AE
:1012F00036015FC29091680181E0892780933A01AD
:10130000809356018093660154C29091680181E0F8
:10131000892780933A0180935E018093660149C2D8
:101320009091680181E0892780933A0180935D0163
:10133000809366013EC29091680181E08927809385
:101340003A01809341018093660133C29091680114
:1013500081E0892780933A0180933E018093660162
:101360008093350126C29091680181E0892780939E
:1013700040011FC29091680181E0892780933B0161
:1013800018C29091680181E089278093610111C2A0
:101390009091680181E0892780934B010AC2909166
:1013A000680181E089278093530103C2909168010D
:1013B00081E0892780935B01FCC19091680181E005
:1013C000892780935801F5C19091680181E08927B0
:1013D00080935001EEC19091680181E0892780934C
:1013E0004801E7C19091680181E08927809351010C
:1013F000E0C19091680181E0892780935901D9C1AA
:101400009091680181E0892780934701D2C1909132
:10141000680181E0892780933C01CBC190916801EC
:1014200081E0892780935401C4C19091680181E0D3
:10143000892780934301BDC19091680181E089278C
:1014400080935C01B6C19091680181E08927809307
:101450005701AFC19091680181E0892780935A01BB
:10146000A8C19091680181E0892780934401A1C1BE
:101470009091680181E0892780934A019AC19091F7
:10148000680181E0892780935F0193C19091680191
:1014900081E0892780933E018CC19091680181E0B1
:1014A000892780933D0185C19091680181E089275A
:1014B000809345017EC19091680181E089278093E6
:1014C0004D0177C19091680181E089278093550192
:1014D00070C19091680181E089278093560169C1AC
:1014E0009091680181E089278093450162C19091C4
:1014F000680181E08927809355015BC19091680163
:1015000081E0892780935E0154C19091680181E058
:101510008927809356014DC19091680181E0892708
:1015200080934E0146C12091680181E028272093D5
:10153000490130913901332319F085E090E002C070
:101540008CE190E0FC01E65CFE4F20833093670164
:1015500030C12091680181E0282720934901309112
:101560003901332319F08AE190E002C08FE190E065
:10157000FC01E65CFE4F2083309367011AC1209185
:10158000680181E0282720934901309139013323F4
:1015900019F082E290E002C087E190E0FC01E65C95
:1015A000FE4F20833093670104C12091680181E0E0
:1015B00028272093490130913901332319F088E01D
:1015C00090E002C08DE090E0FC01E65CFE4F2083DD
:1015D00030936701EEC0809168018111EAC080916B
:1015E0003901882311F089E101C085E20E94CE0310
:1015F000E0C0809168018111DCC0809139018823AD
:1016000011F081E201C08DE10E94CE03D2C0209191
:10161000680181E028272093490130913901332363
:1016200019F088E190E002C080E290E0FC01E65C05
:10163000FE4F208330936701BCC080916801811107
:10164000B8C080913901882311F089E001C081E19F
:101650000E94CE03AEC02091680181E0282720932C
:10166000490130913901332319F086E190E002C03D
:101670008EE090E0FC01E65CFE4F20833093670132
:1016800098C02091680181E028272093490130917A
:101690003901332319F084E090E002C08EE190E03C
:1016A000FC01E65CFE4F20833093670182C080918D
:1016B000390190916801882309F4E2C0911179C041
:1016C00081E00E94CE0375C09091680181E0892776
:1016D00080934901809361016CC09091680181E021
:1016E0008927809349018093580163C090916801D4
:1016F00081E0892780934901809350015AC09091DD
:10170000680181E0892780933A0180934F0180939B
:1017100066014FC09091680181E08927809349015B
:1017200080933A018093660144C09091680181E002
:10173000892780933A01809355018093660139C0CF
:10174000809168018823A9F160916C0181E068278C
:1017500060936C0180E090E00E94200480916C0115
:101760008093630126C080916801882311F1609104
:101770006B0181E0682760936B0181E090E00E943B
:10178000200480916B018093650113C080916801F2
:10179000882379F081E0809364010E94630364EF01
:1017A00071E080E090E00E945601109264010E9476
:1017B000630380916701882331F080916601811174
:1017C00002C010923A01809138018823B1F08091D3
:1017D0003701882391F080913601882371F01092AF
:1017E000380110923701109236011092390110928F
:1017F0006701109266010E94B70380913801882327
:1018000099F180913701882379F1809135018823FE
:1018100059F110923801109237011092350110924F
:101820003901109267011092660188E290E00E94EF
:101830005803C1E0C09362010E946303C093430157
:101840000E94630364EF71E080E090E00E94560123
:10185000109262010E94630364EF71E080E090E007
:101860000E94560110924301109268018091690113
:10187000882319F01092690199CA10926A0196CAD8
:1018800081E089278093490180934A0192CFF99999
:10189000FECF92BD81BDF89A992780B50895262F75
:1018A000F999FECF1FBA92BD81BD20BD0FB6F89445
:1018B000FA9AF99A0FBE01960895EE0FFF1F059050
:1018C000F491E02D099481E090E0F8940C94680C78
:0418D000F894FFCFBA
:1018D400900190010000000028029101BF017502EF
:0A18E400F001CE01E2010D0A000040
:00000001FF
