:1000000056C06ACA90CA78C077C076C075C074C03E
:1000100073C0BBCA71C03FC970C96EC06DC06CC02F
:100020006BC06AC069C05A582050532F32204B65AC
:1000300079626F61726420636F6E74726F6C6C654D
:10004000722076312E300000000000000000000019
:10005000040507000000000000000000000001028D
:100060000408102040800102040810200102040846
:10007000102040804004040404040404040202022A
:100080000202020303030303030202030000000051
:100090003600330030000000000038003500320028
:1000A00000000000370034003100D906AB091124EC
:1000B0001FBECFE5D4E0DEBFCDBF10E0A0E6B0E0CC
:1000C000EAEFF8E102C005900D92A438B107D9F724
:1000D00021E0A4E8B0E001C01D92A238B207E1F728
:1000E00010E0C7E5D0E003C02197FE01E9DBC5358C
:1000F000D107D1F740DAFFCB83CFFF920F931F9345
:10010000CF93DF93EC01F62E08811981C801DEDB65
:10011000F81619F06F2DC801E1DBCE01DF91CF9108
:100120001F910F91FF9008958FB90000779BFECF2C
:100130008FB10895CF92DF92EF92FF92982F990F8F
:10014000990F990F20E030E080E0C12CD12C76018E
:10015000C3949C32F8F4E92FF0E0EB56FF4F408156
:10016000442361F0B701A601022E04C0440F551FBD
:10017000661F771F0A94D2F7842B0CC0B701A60123
:10018000022E04C0440F551F661F771F0A94D2F732
:10019000409584232F5F3F4F9F5F28303105C9F67C
:1001A000FF90EF90DF90CF900895CF93DF93D82FFB
:1001B000C62F40918C0030918D008091DA00882309
:1001C00099F02FB7F8948091DA00813059F48BB709
:1001D0008093D8009BB78091D900809589238BBFED
:1001E0002FBF02C02093D8004DB93EB960E08AE02D
:1001F000EEDA8D2F99DF8C2F97DF61E08AE0E7DA66
:100200008091DA00882361F09FB7F8942091DA009A
:100210008091D800213019F48BBF9FBF01C08FBFE0
:10022000DF91CF910895CF93C0E08C2F83DFCF5F14
:10023000682F8C2FBADFC630C1F7CF910895CF93C6
:10024000DF93C5E9D0E081E08AA7EDDF6AE070E0E6
:1002500080E090E016DA1AA6DF91CF91E4CFE5E9CD
:10026000F0E09F01255930402817390714F4119206
:10027000F8CF0895CF93DF9388E290E0F0DFC5E9EF
:10028000D0E081E088A7CFDF6AE070E080E090E016
:10029000F8D918A6DF91CF91C6CFEF92FF921F93A6
:1002A000CF93DF9300D0CDB7DEB77C01162F0EDBE6
:1002B0008A3011F0843129F461E08A3069F060E01D
:1002C0000BC0111102C064E101C06AE0FA82E98248
:1002D000CE01019612DF612F862F0F900F90DF91D4
:1002E000CF911F91FF90EF900895CF93DF9300D0AF
:1002F000CDB7DEB7611102C064E101C06AE09A8344
:100300008983CE010196F9DE0F900F90DF91CF9196
:100310000895CF93803E910521F481E080938B0076
:10032000E6C4813E910531F481E080938B00809397
:100330008A00DDC4803F910541F42091890021119C
:1003400004C081E080938900D2C420918B002111E8
:1003500007C020918A00211103C020E030E002C0D4
:1003600020E031E0820F931F8934910509F460C3C6
:100370000CF0F7C08A32910509F4C9C20CF076C0BE
:100380008B31910509F4AEC2BCF58231910509F4B7
:10039000F0C1DCF48D30910509F419C424F40697FA
:1003A00009F454C457C48E30910509F4E1C3419750
:1003B00009F050C49091890081E089278093A400BE
:1003C000809395008093860045C48531910509F49A
:1003D0007BC224F4449709F4D5C13CC4863191050D
:1003E00009F4B8C24A9709F035C49091890081E0B8
:1003F000892780939D002EC48232910509F495C20D
:10040000A4F48D31910509F489C20CF410C28E3127
:10041000910509F4A6C2819709F01CC49091890046
:1004200081E089278093AD0015C48532910509F4D8
:10043000A6C274F48332910509F407C2849709F0C7
:1004400009C49091890081E089278093A70002C4A4
:100450008632910509F48CC2899709F0FBC390910B
:10046000890081E0892780939C00F4C38A33910539
:1004700009F415C2D4F58133910509F417C2A4F427
:100480008C32910509F435C20CF4E6C18D32910528
:1004900009F421C28E9709F0DDC39091890081E0B3
:1004A00089278093B800D6C38433910509F4DBC152
:1004B00074F48233910509F4C1C1C39709F0CAC32A
:1004C0009091890081E089278093BB00C3C3853365
:1004D000910509F431C2C69709F0BCC39091890017
:1004E00081E089278093B900B5C38134910509F46F
:1004F0008BC2A4F48C33910509F402C20CF4BAC186
:100500008D33910509F442C2CE9709F0A3C39091AF
:10051000890081E089278093A9009CC384349105D8
:1005200009F4CBC17CF48234910509F4AAC1833467
:10053000910509F08FC39091890081E0892780930C
:10054000AA0088C38534910509F4FDC1863491055C
:1005500009F080C39091890081E089278093A100F0
:1005600079C38437910509F426C20CF077C08A3527
:10057000910509F455C18CF58E34910509F4E4C256
:10058000ACF48B34910509F483C10CF4A1C28C3412
:10059000910509F461C28D34910509F05BC3909116
:1005A000890081E0892780939A0054C3853591059D
:1005B00009F4B6C24CF48235910509F411C28435B0
:1005C000910509F45DC246C38835910509F408C355
:1005D0008935910509F4CDC03DC38B36910509F4E9
:1005E000E3C1CCF48D35910509F486C22CF48B352A
:1005F000910509F459C22EC38636910509F405C147
:100600008936910509F026C39091890081E08927F8
:10061000809398001FC38137910509F409C27CF4C7
:100620008C36910509F4CEC18037910509F012C3CB
:100630009091890081E08927809399000BC38237CC
:10064000910509F4AAC18337910509F003C390917C
:10065000890081E089278093B800FCC2843121E0C1
:10066000920709F48FC0C4F58B37910509F49DC238
:10067000ACF48637910509F4BFC00CF4AAC18937E0
:10068000910509F49BC28A37910509F0E3C2909164
:10069000890081E089278093A800DCC28E3791050C
:1006A00009F4B0C27CF48C37910509F475C28D371A
:1006B000910509F0CFC29091890081E0892780934C
:1006C000A100C8C2813121E0920709F464C08231DF
:1006D000914009F4A9C2BEC2813721E0920709F412
:1006E00065C0ECF48A3521E0920709F499C02CF436
:1006F0008A34914009F4ECC1ADC28B3621E09207F7
:1007000009F471C08037914009F0A4C2909189002A
:1007100081E089278093A400809396009BC285374F
:1007200021E0920709F44DC094F4823721E092074A
:1007300009F450C08437914009F08CC2909189002F
:1007400081E08927809395008093A90083C28A372E
:1007500021E0920709F44DC28D37914009F07AC229
:100760009091890081E08927809395008093A8006B
:1007700071C29091890081E08927809395008093D0
:10078000880068C29091890081E089278093A40045
:10079000809387005FC29091890081E089278093D0
:1007A000A400809395008093860054C290918900A4
:1007B00081E089278093A4008093AD008093850019
:1007C00049C29091890081E08927809395008093A8
:1007D000B10040C29091890081E089278093950003
:1007E0008093B90037C29091890081E08927809376
:1007F00095008093B8002EC29091890081E08927EE
:100800008093950080939C0025C29091890081E09F
:1008100089278093950080939900809384001AC261
:100820009091890081E0892780939B0013C2909169
:10083000890081E08927809396000CC290918900FD
:1008400081E089278093BC0005C29091890081E0F6
:1008500089278093A600FEC19091890081E08927B5
:100860008093AE00F7C19091890081E08927809341
:10087000B600F0C19091890081E089278093B30090
:10088000E9C19091890081E089278093AB00E2C1A2
:100890009091890081E089278093A300DBC190912A
:1008A000890081E089278093AC00D4C190918900B0
:1008B00081E089278093B400CDC19091890081E0C7
:1008C00089278093A200C6C19091890081E0892781
:1008D00080939700BFC19091890081E08927809320
:1008E000AF00B8C19091890081E0892780939E0074
:1008F000B1C19091890081E089278093B700AAC196
:100900009091890081E089278093B200A3C19091E2
:10091000890081E089278093B5009CC1909189006E
:1009200081E0892780939F0095C19091890081E0A3
:1009300089278093A5008EC19091890081E0892745
:100940008093BA0087C19091890081E089278093C4
:10095000990080C19091890081E089278093980057
:1009600079C19091890081E089278093A00072C1AC
:100970009091890081E089278093A8006BC19091B4
:10098000890081E089278093B00064C1909189003B
:1009900081E089278093B1005DC19091890081E059
:1009A00089278093A00056C19091890081E0892712
:1009B0008093B0004FC19091890081E08927809396
:1009C000B90048C19091890081E089278093B100E6
:1009D00041C19091890081E089278093A9003AC1A3
:1009E0002091890081E028272093A400809188002D
:1009F000811103C08CE190E002C085E090E0FC0131
:100A0000EB56FF4F208326C12091890081E02827E3
:100A10002093A40080918800811103C08FE190E0B1
:100A200002C08AE190E0FC01EB56FF4F208312C127
:100A30002091890081E028272093A40080918800DC
:100A4000811103C087E190E002C082E290E0FC01E6
:100A5000EB56FF4F2083FEC02091890081E02827BC
:100A60002093A40080918800811103C08DE090E064
:100A700002C088E090E0FC01EB56FF4F2083EAC003
:100A80002091890081E028272093A400809188008C
:100A9000811103C085E290E002C089E190E0FC0191
:100AA000EB56FF4F2083D6C02091890081E0282794
:100AB0002093A40080918800811103C08DE190E013
:100AC00002C081E290E0FC01EB56FF4F2083C2C0E0
:100AD0002091890081E028272093A400809188003C
:100AE000811103C080E290E002C088E190E0FC0147
:100AF000EB56FF4F2083AEC02091890081E028276C
:100B00002093A40080918800811103C081E190E0CE
:100B100002C089E090E0FC01EB56FF4F20839AC0B1
:100B20002091890081E028272093A40080918800EB
:100B3000811103C08EE090E002C086E190E0FC01EC
:100B4000EB56FF4F208386C02091890081E0282743
:100B50002093A40080918800811103C08EE190E071
:100B600002C084E090E0FC01EB56FF4F208372C08E
:100B70002091890081E028272093A400809188009B
:100B8000811103C080E190E002C081E090E0FC01AF
:100B9000EB56FF4F20835EC09091890081E089274A
:100BA0008093A4008093BC0055C09091890081E09F
:100BB00089278093A4008093B3004CC09091890052
:100BC00081E089278093A4008093AB0043C090917B
:100BD000890081E08927809395008093AA003AC01C
:100BE0009091890081E089278093A40080939500EB
:100BF00031C09091890081E089278093950080938E
:100C0000B00028C080918900882321F16091930071
:100C100081E068276093930080E090E066DB80913C
:100C200093008093BE0016C080918900882391F0C4
:100C30006091920081E068276093920081E090E0EB
:100C400054DB809192008093C00004C080918900A1
:100C50008111F5DA80918700882389F080918600E0
:100C6000882369F080918500882349F010928700DD
:100C7000109286001092850010928800FBDA809115
:100C80008700882349F180918600882329F180918B
:100C90008400882309F11092870010928600109238
:100CA00084001092880088E290E0D9DAC1E0C09315
:100CB000BD00B9DAC0939E00B6DA64EF71E080E05F
:100CC00090E0DFD41092BD00AEDA64EF71E080E016
:100CD00090E0D7D410929E001092890080918A00F3
:100CE000882319F010928A0002C010928B00CF91D5
:100CF00008956091930080E090E0CFDA80939300B4
:100D00006091920081E090E0C8DA80939200E5E97A
:100D1000F0E09091930091A783A70895CF92DF927E
:100D2000EF92FF92CF93DF937AD46B017C0123D1B2
:100D3000882391F031D1EC0181E080939400C0923E
:100D40008E00D0928F00E0929000F092910061E0CE
:100D50008FE03DD5CE01DDDA66DA80918E0090918C
:100D60008F00A0919000B0919100C81AD90AEA0AA8
:100D7000FB0A88ECC816D104E104F10498F060E0A5
:100D80008FE025D5109294006091930080E11FD5EB
:100D90006091920081E1DF91CF91FF90EF90DF9021
:100DA000CF9015C5DF91CF91FF90EF90DF90CF905E
:100DB00008958DEB90E0FAD0ECE8F0E080E58083D8
:100DC00081E08183089526E040E052EC61E070E02C
:100DD0008CED90E0FCD18CED90E0D8D108D161E0B1
:100DE0008AE0B9D461E08AE0F2D461E08EE0B3D465
:100DF00061E08FE0B0D461E080E1ADD461E081E1F9
:100E0000AAD461E08EE0E3D461E08FE0E0D460E05A
:100E100080E1DDD460E081E1DAD462E082E09BD45D
:100E200062E083E098D48CE290E019DA62DF6091AE
:100E3000930080E1CCD46091920081E1C8D466E255
:100E400070E08CED90E018D315DA62E083E0AFD06B
:100E500060E08FE0BCC4CF92DF92EF92FF920F93DD
:100E60001F93CF938091C500E0D4C82FD8D30091B1
:100E7000C1001091C2002091C3003091C4006B01E9
:100E80007C01C01AD10AE20AF30A970186010B3FDE
:100E900011052105310510F01092C0006093C100CA
:100EA0007093C2008093C3009093C4008091C000EF
:100EB0008F5F8093C0008A3048F4823060F48130C4
:100EC000E9F51092BF001092BE003AC08A30B1F02E
:100ED0008B30E9F033C08091BE008C0F8093BE0050
:100EE0008091BF0090E095958795C11102C020E0E8
:100EF00001C020E8822B8093BF0022C08091BE00F9
:100F00008170C81301C08DEF8093BE0019C080911D
:100F1000BE008D3F98F48091C7008F5F803108F04C
:100F200080E09091C600891749F0E82FF0E0909199
:100F3000BF00E853FF4F90838093C7001092C0001A
:100F4000CF911F910F91FF90EF90DF90CF90089578
:100F5000E091C6008091C700E81759F0EF5FE031DB
:100F600008F0E0E0E093C600F0E0E853FF4F808136
:100F7000089580E008959091C6008091C700981769
:100F800049F08091C6009091C700891B87FF03C07C
:100F9000805F089580E00895EEDF811102C08FEF39
:100FA00003C0D6DF8823D9F390E008950895CF9346
:100FB000DF93D82FC62F8093C50062E08C2FCBD350
:100FC00062E08D2FC8D31092C7001092C600C230C5
:100FD00021F0C33021F08FEF03C080E001C081E039
:100FE00042E050E06BE277E0DF91CF9156C2CF93C1
:100FF000CFB7F8948091DB0081111FC0EFE7F0E0DC
:101000008491E8E6F0E09491E82FF0E0EE0FFF1F06
:10101000E056FF4FA591B491EC91E92319F461E0FA
:101020008AE0D5D361E08AE096D36C9A6E9A61E04B
:101030008DE091D361E08BE08ED38091DB008F5FF8
:101040008093DB00CFBFCF910895FC01918D228D5D
:10105000892F90E0805C9F4F821B91098F739927A5
:101060000895FC01918D828D981731F0828DE80FE3
:10107000F11D858D90E008958FEF9FEF0895FC019D
:10108000918D828D981761F0828DDF01A80FB11DBF
:101090005D968C91928D9F5F9F73928F90E00895E3
:1010A0008FEF9FEF089582EA99E0892B39F080E075
:1010B00090E0892B19F046D18111A2C70895FC0157
:1010C000848DDF01A80FB11DA35ABF4F2C91848DD1
:1010D00090E001968F739927848FA689B7892C9306
:1010E000A089B1898C9180648C93938D848D9813A1
:1010F00006C00288F389E02D80818F7D808308956A
:10110000EF92FF920F931F93CF93DF93EC0181E057
:10111000888F9B8D8C8D981305C0E889F989808113
:1011200085FD23C0F62E0B8D10E00F5F1F4F0F7350
:101130001127E02E8C8DE8120BC00FB607FCFACFFA
:10114000E889F989808185FFF5CFCE01B8DFF2CF3C
:101150008B8DFE01E80FF11DE35AFF4FF0820B8FDC
:10116000EA89FB898081806207C0EE89FF896083FC
:10117000E889F98980818064808381E090E0DF9153
:10118000CF911F910F91FF90EF900895CF93DF9330
:10119000EC01888D8823C1F0EA89FB89808185FD77
:1011A00005C0A889B9898C9186FD0EC00FB607FCD1
:1011B000F5CF808185FFF2CFA889B9898C9185FF11
:1011C000EDCFCE017CDFE8CFDF91CF910895CF92B4
:1011D000DF92EF92FF921F93CF93DF93EC016A01AE
:1011E0007B01122FE889F98982E080834115514EF5
:1011F00061057105A9F060E079E08DE390E0A70159
:1012000096013CD3DA01C9010197A109B109B6954C
:10121000A795979587959C01211580E13807A0F047
:10122000E889F989108260E874E88EE190E0A7010E
:10123000960124D3DA01C9010197A109B109B69534
:10124000A795979587959C01EC85FD853083EE8564
:10125000FF852083188E1068EC89FD891083EA8948
:10126000FB89808180618083EA89FB898081886035
:101270008083EA89FB89808180688083EA89FB8991
:1012800080818F7D8083DF91CF911F91FF90EF90C0
:10129000DF90CF9008951F920F920FB60F921124F6
:1012A0002F938F939F93EF93FF93E091EC00F09136
:1012B000ED008081E091F200F091F30082FD12C018
:1012C00090818091F5008F5F8F732091F6008217D7
:1012D00051F0E091F500F0E0E452FF4F958F8093DC
:1012E000F50001C08081FF91EF919F918F912F9127
:1012F0000F900FBE0F901F9018951F920F920FB670
:101300000F9211242F933F934F935F936F937F938B
:101310008F939F93AF93BF93EF93FF938CED90E0E8
:10132000CEDEFF91EF91BF91AF919F918F917F9111
:101330006F915F914F913F912F910F900FBE0F9042
:101340001F9018958CED90E080DE21E0892B09F448
:1013500020E0822F0895ECEDF0E01382128288EEF7
:1013600093E0A0E0B0E084839583A683B78388E60A
:1013700090E09183808380E490E09587848729E2E0
:1013800030E0378726872BE230E0318B208B2AE252
:1013900030E0338B228B958B848B8CE290E0978BA3
:1013A000868B118E128E138E148E0895CF92DF923B
:1013B000EF92FF920F931F93CF93DF936C017A010B
:1013C0008B01C0E0D0E0CE15DF0581F0D8016D9132
:1013D0008D01D601ED91FC910190F081E02DC601C7
:1013E0000995892B11F02196EECF7E01C701DF917F
:1013F000CF911F910F91FF90EF90DF90CF900895C4
:101400006115710579F0FB0101900020E9F7319732
:10141000AF01461B570BDC01ED91FC910280F3817B
:10142000E02D099480E090E00895EF92FF920F93F1
:101430001F93CF93DF938C017B01C0E0D0E0F701D5
:10144000EC0FFD1F6491662361F0D801ED91FC91D2
:101450000190F081E02DC8010995892B11F02196AA
:10146000EECFCE01DF91CF911F910F91FF90EF90C2
:10147000089564E770E0C4CF0F931F93CF93DF9379
:10148000EC01D3DF8C01CE01F4DF800F911FDF91DF
:10149000CF911F910F91089508958230E0F4E82FC5
:1014A000F0E0EE0FFF1FE05AFF4F71836083813041
:1014B00039F085B78C7F482B45BF8BB780640AC055
:1014C00085B7837F440F551F440F551F482B45BFD9
:1014D0008BB780688BBF08951F920F920FB60F9243
:1014E00011242F933F934F935F936F937F938F9329
:1014F0009F93AF93BF93EF93FF93E0916000F091C0
:1015000061000995FF91EF91BF91AF919F918F91EC
:101510007F916F915F914F913F912F910F900FBEEF
:101520000F901F9018951F920F920FB60F921124D3
:101530002F933F934F935F936F937F938F939F93DB
:10154000AF93BF93EF93FF93E0916200F09163003C
:101550000995FF91EF91BF91AF919F918F917F91ED
:101560006F915F914F913F912F910F900FBE0F9010
:101570001F9018950895BED0FDDF25DCC3E5D8E0A7
:10158000CDDB2097E9F38FDDFBCF1F920F920FB6D3
:101590000F9211242F933F938F939F93AF93BF93F9
:1015A00080917A0190917B01A0917C01B0917D01A5
:1015B0003091790123E0230F2D3720F40196A11DEE
:1015C000B11D05C026E8230F0296A11DB11D209371
:1015D000790180937A0190937B01A0937C01B09371
:1015E0007D0180917E0190917F01A0918001B09159
:1015F00081010196A11DB11D80937E0190937F0111
:10160000A0938001B0938101BF91AF919F918F9181
:101610003F912F910F900FBE0F901F9018952FB7ED
:10162000F89460917A0170917B0180917C01909196
:101630007D012FBF08953FB7F89480917E0190916E
:101640007F01A0918001B091810122B708B600FE10
:1016500005C02F3F19F00196A11DB11D3FBFBA2F44
:10166000A92F982F8827820F911DA11DB11DBC01A4
:10167000CD0142E0660F771F881F991F4A95D1F769
:1016800008958F929F92AF92BF92CF92DF92EF9286
:10169000FF926B017C01CFDF4B015C01C114D104CF
:1016A000E104F104F1F0E9D0C6DFDC01CB018819D7
:1016B0009909AA09BB09883E9340A105B10570F3B9
:1016C00021E0C21AD108E108F10888EE880E83E013
:1016D000981EA11CB11CC114D104E104F10421F72E
:1016E000DDCFFF90EF90DF90CF90BF90AF909F90B5
:1016F0008F900895789483B7826083BF83B78160A9
:1017000083BF89B7816089BF1EBC8EB582608EBDE4
:101710008EB581608EBD8FB581608FBD85B58460CB
:1017200085BD85B5806485BD329A319A309A379AE5
:101730001AB80895853039F0873049F0843051F473
:101740008FB58F7702C08FB58F7D8FBD089585B51A
:101750008F7D85BD0895CF93DF9390E0FC01E25A21
:10176000FF4F2491FC01EB58FF4F8491882361F1D6
:1017700090E0880F991FFC01E056FF4FC591D4916E
:10178000FC01EA56FF4FA591B491611109C09FB7C2
:10179000F8948881209582238883EC912E230BC0B6
:1017A000623061F49FB7F8948881322F309583239B
:1017B0008883EC912E2B2C939FBF06C08FB7F89493
:1017C000E8812E2B28838FBFDF91CF9108951F933F
:1017D000CF93DF93282F30E0F901E95BFF4F84912D
:1017E000F901E25AFF4FD491F901EB58FF4FC49130
:1017F000CC23B9F0162F81119DDFEC2FF0E0EE0F16
:10180000FF1FEA56FF4FA591B4919FB7F8941111AD
:1018100004C08C91D095D82302C0EC91DE2BDC93D0
:101820009FBFDF91CF911F910895CF93DF93282F12
:1018300030E0F901E95BFF4F8491F901E25AFF4F73
:10184000D491F901EB58FF4FC491CC2389F0811159
:1018500071DFEC2FF0E0EE0FFF1FE457FF4FA59173
:10186000B491EC91ED2381E090E021F480E002C09E
:1018700080E090E0DF91CF9108950895A1E21A2EC3
:10188000AA1BBB1BFD010DC0AA1FBB1FEE1FFF1F24
:10189000A217B307E407F50720F0A21BB30BE40B74
:1018A000F50B661F771F881F991F1A9469F76095BB
:1018B0007095809590959B01AC01BD01CF01089575
:1018C000EE0FFF1F0590F491E02D0994E199FECFF2
:1018D0009FBB8EBBE09A99278DB30895262FE1997F
:1018E000FECF9FBB8EBB2DBB0FB6F894E29AE19A58
:0A18F0000FBE01960895F894FFCF93
:1018FA004C0A0000000000008008D60925083F08AD
:10190A003108C6080D0A006E616E00696E66006FC6
:04191A0076660000ED
:00000001FF
