:100000000C9473000C946E040C9447040C949B00A5
:100010000C949B000C949B000C949B000C949B00F4
:100020000C949B000C949B000C949B000C949B00E4
:100030000C949B000C949B000C949B000C949B00D4
:100040000C94FD030C949B000C94BB040C9495043D
:100050000C949B000C949B000C949B000C949B00B4
:100060000C949B000C949B000000000023002600D1
:1000700029005A582050532F32204B6579626F6106
:10008000726420636F6E74726F6C6C65722076316F
:100090002E300000000000240027002A000000008D
:1000A00000250028002B00040404040404040402B6
:1000B0000202020202030303030303010204081005
:1000C00020408001020408102001020408102000D2
:1000D0000000080002010000030407000000000007
:1000E00000000000ED0411241FBECFEFD8E0DEBFFA
:1000F000CDBF11E0A0E0B1E0E8E3F8E102C0059077
:100100000D92AA31B107D9F722E0AAE1B1E001C00E
:100110001D92A931B207E1F710E0C3E7D0E004C0B7
:100120002197FE010E940F0CC237D107C9F70E9428
:1001300020050C941A0C0C940000833081F028F4F4
:10014000813099F08230A1F008958730A9F088308D
:10015000B9F08430D1F4809180008F7D03C080910C
:1001600080008F7780938000089584B58F7702C0D8
:1001700084B58F7D84BD08958091B0008F7703C0D2
:100180008091B0008F7D8093B00008951F93CF932E
:10019000DF93282F30E0F901E153FF4F8491F901FB
:1001A000E554FF4FD491F901E955FF4FC491CC2399
:1001B000C1F0162F81110E949D00EC2FF0E0EE0F90
:1001C000FF1FE356FF4FA591B4919FB7F89411110B
:1001D00004C08C91D095D82302C0EC91DE2BDC9327
:1001E0009FBFDF91CF911F910895CF93DF9390E050
:1001F000FC01E554FF4F2491FC01E955FF4F849128
:10020000882361F190E0880F991FFC01ED56FF4FA4
:10021000C591D491FC01E356FF4FA591B4916111B2
:1002200009C09FB7F8948881209582238883EC9138
:100230002E230BC0623061F49FB7F8948881322F6F
:10024000309583238883EC912E2B2C939FBF06C07F
:100250008FB7F894E8812E2B28838FBFDF91CF9141
:1002600008953FB7F8948091760190917701A0911D
:100270007801B091790126B5A89B05C02F3F19F0F0
:100280000196A11DB11D3FBFBA2FA92F982F882716
:10029000820F911DA11DB11DBC01CD0142E0660F71
:1002A000771F881F991F4A95D1F708958F929F92C3
:1002B000AF92BF92CF92DF92EF92FF920E943101F4
:1002C0004B015C0184EFC82EDD24D394E12CF12C8A
:1002D0000E943101DC01CB0188199909AA09BB09E7
:1002E000883E9340A105B10598F321E0C21AD108D8
:1002F000E108F10888EE880E83E0981EA11CB11C6D
:10030000C114D104E104F10419F7FF90EF90DF90DC
:10031000CF90BF90AF909F908F9008950895CF9207
:10032000DF92EF92FF920F931F93CF93DF936C01B5
:100330007A018B01C0E0D0E0CE15DF0581F0D80155
:100340006D918D01D601ED91FC910190F081E02D30
:10035000C6010995892B11F02196EECF7E01C701C8
:10036000DF91CF911F910F91FF90EF90DF90CF9091
:100370000895089580E090E00895FC01538D448D28
:10038000252F30E0842F90E0821B930B541710F040
:10039000CF96089501970895FC01918D828D98174D
:1003A00061F0828DDF01A80FB11D5D968C91928D59
:1003B0009F5F9F73928F90E008958FEF9FEF089556
:1003C000FC01918D828D981731F0828DE80FF11D1F
:1003D000858D90E008958FEF9FEF0895FC01918D3A
:1003E000228D892F90E0805C9F4F821B91098F7333
:1003F000992708958AE791E00E94EE0121E0892B78
:1004000009F420E0822F0895FC01848DDF01A80FFC
:10041000B11DA35ABF4F2C91848D90E001968F732C
:100420009927848FA689B7892C93A089B1898C914B
:10043000837080648C93938D848D981306C002889A
:10044000F389E02D80818F7D80830895EF92FF9264
:100450000F931F93CF93DF93EC0181E0888F9B8DE7
:100460008C8D981305C0E889F989808185FD26C0A7
:10047000F62E0B8D10E00F5F1F4F0F731127E02E2C
:100480008C8DE8120CC00FB607FCFACFE889F98909
:10049000808185FFF5CFCE010E940402F1CF8B8DC4
:1004A000FE01E80FF11DE35AFF4FF0829FB7F89469
:1004B0000B8FEA89FB89808180620AC09FB7F8941C
:1004C000EE89FF896083E889F9898081837080647F
:1004D00080839FBF81E090E0DF91CF911F910F91CA
:1004E000FF90EF900895CF93DF93EC01888D8823E0
:1004F000C9F0EA89FB89808185FD05C0A889B98991
:100500008C9186FD0FC00FB607FCF5CF808185FF6B
:10051000F2CFA889B9898C9185FFEDCFCE010E94D9
:100520000402E7CFDF91CF91089580E090E0892B1E
:1005300029F00E94FA0181110C9400000895909115
:10054000340180913301981749F0809134019091E2
:100550003301891B87FF03C0805F089580E0089501
:10056000CF92DF92EF92FF920F931F93CF93DF937F
:100570002091220130E0F901E153FF4F8491F9010C
:10058000E554FF4FD491F901E955FF4FC491CC23B5
:1005900079F081110E949D00EC2FF0E0EE0FFF1F1B
:1005A000E859FF4FA591B491EC91ED2391E009F446
:1005B00090E08FB7F894409172015091730160916F
:1005C0007401709175018FBF00911D0110911E0182
:1005D00020911F01309120016A017B01C01AD10ACC
:1005E000E20AF30A970186010B3F11052105310547
:1005F00010F010921C0140931D0150931E01609356
:100600001F017093200180911C018F5F80931C015A
:100610008A3048F4823060F48130E9F510921B0191
:1006200010921A013AC08A30B1F08B30E9F033C031
:1006300080911A01890F80931A0120911B0130E0EB
:1006400035952795911102C080E001C080E8282BE4
:1006500020931B0122C080911A018170981301C060
:100660008DEF80931A0119C080911A018D3F98F483
:10067000809133018F5F803108F080E090913401E8
:10068000891749F0E82FF0E090911B01ED5DFE4FD6
:1006900090838093330110921C01DF91CF911F91C1
:1006A0000F91FF90EF90DF90CF900895CF92DF925F
:1006B000EF92FF921F93CF93DF9310E0D0E0C12C15
:1006C000D12C7601C394212F80E090E0C0E02C3241
:1006D000A8F4E22FF0E0E65CFE4F3081B701A601FE
:1006E000082E04C0440F551F661F771F0A94D2F7C7
:1006F000332311F0C42B02C04095C42301962F5F11
:100700008830910521F7DF5F9091170280911802E0
:100710009CBD8DBD60E08AE00E94C600DEBD000089
:100720000DB407FEFDCF8EB5CEBD00000DB407FEA3
:10073000FDCF8EB561E08AE00E94C600185FD6301A
:1007400009F0C1CFDF91CF911F91FF90EF90DF9023
:10075000CF900895EAE3F1E0119281E0E236F807E4
:10076000D9F781E0809362010E9456030E945601EE
:10077000109262010C9456030E94150C0F931F9364
:10078000CF938C01611102C0C4E101C0CAE0C8016D
:100790000E94F90BC81739F06C2FC801CF911F9137
:1007A0000F910C94010CCF911F910F9108950F930D
:1007B0001F93CF93DF938C01C62F0E94F90B8A30D1
:1007C00011F0843129F461E08A3089F060E00FC0D3
:1007D000C11102C0D4E101C0DAE0C8010E94F90BE6
:1007E000D81721F06D2FC8010E94010C6C2F862FA5
:1007F000DF91CF911F910F9108951F920F920FB625
:100800000F9211242F933F938F939F93AF93BF9396
:100810008091720190917301A0917401B091750162
:100820003091710123E0230F2D3720F40196A11D93
:10083000B11D05C026E8230F0296A11DB11D20930E
:1008400071018093720190937301A0937401B0932E
:1008500075018091760190917701A0917801B09116
:1008600079010196A11DB11D8093760190937701C6
:10087000A0937801B0937901BF91AF919F918F912F
:100880003F912F910F900FBE0F901F9018951F92C0
:100890000F920FB60F9211242F933F934F935F93B4
:1008A0006F937F938F939F93AF93BF93EF93FF9338
:1008B000E0910201F09103010995FF91EF91BF9141
:1008C000AF919F918F917F916F915F914F913F91E8
:1008D0002F910F900FBE0F901F9018951F920F929F
:1008E0000FB60F9211242F933F934F935F936F9303
:1008F0007F938F939F93AF93BF93EF93FF93E09179
:100900000001F09101010995FF91EF91BF91AF9125
:100910009F918F917F916F915F914F913F912F9117
:100920000F900FBE0F901F9018951F920F920FB649
:100930000F9211242F933F934F935F936F937F9365
:100940008F939F93AF93BF93EF93FF938AE791E0C9
:100950000E940402FF91EF91BF91AF919F918F91FF
:100960007F916F915F914F913F912F910F900FBEAB
:100970000F901F9018951F920F920FB60F9211248F
:100980002F938F939F93EF93FF93E0918A01F091C0
:100990008B018081E0919001F091910182FD12C064
:1009A0009081809193018F5F8F73209194018217C2
:1009B00051F0E0919301F0E0E658FE4F958F80935F
:1009C000930101C08081FF91EF919F918F912F91B1
:1009D0000F900FBE0F901F901895EAE7F1E0138279
:1009E000128288EE93E0A0E0B0E084839583A68332
:1009F000B78388E091E09183808385EC90E09587D0
:100A0000848784EC90E09787868780EC90E0918BD8
:100A1000808B81EC90E0938B828B82EC90E0958BC5
:100A2000848B86EC90E0978B868B118E128E138EC2
:100A3000148EE7E1F2E080E5808381E08183089510
:100A4000789484B5826084BD84B5816084BD85B5A9
:100A5000826085BD85B5816085BD80916E008160B5
:100A600080936E001092810080918100826080935B
:100A7000810080918100816080938100809180005D
:100A80008160809380008091B10084608093B10088
:100A90008091B00081608093B00080917A00846082
:100AA00080937A0080917A00826080937A008091AE
:100AB0007A00816080937A0080917A0080688093C8
:100AC0007A001092C100E0918A01F0918B0182E0DE
:100AD0008083E0918601F09187011082E091880186
:100AE000F091890180E1808310929201E0918E0162
:100AF000F0918F0186E08083E0918C01F0918D016F
:100B0000808180618083E0918C01F0918D018081F2
:100B100088608083E0918C01F0918D0180818068F4
:100B20008083E0918C01F0918D0180818F7D8083A5
:100B30008AE791E00E947302CFB7F8948091210177
:100B4000811127C0E1EBF0E08491E5ECF0E09491B5
:100B5000E82FF0E0EE0FFF1FED56FF4FA591B49187
:100B6000EC91E92321F461E08AE00E94C60061E093
:100B70008AE00E94F5008CB580618CBD8CB58064E4
:100B80008CBD61E08DE00E94F50061E08BE00E9489
:100B9000F500809121018F5F80932101CFBF61E03B
:100BA0008AE00E94F50061E08AE00E94C60061E0F0
:100BB0008EE00E94F50061E08FE00E94F50061E0A8
:100BC00080E10E94F50061E081E10E94F50061E0B2
:100BD0008EE00E94C60061E08FE00E94C60060E0E7
:100BE00080E10E94C60060E081E10E94C60062E0F0
:100BF00083E00E94F50062E082E00E94F500EAE3F3
:100C0000F1E0119221E0E636F207D9F760916C012C
:100C100080E090E00E94D70380936C0160916B01AB
:100C200081E090E00E94D703C82F80936B01609110
:100C30006C01609363018093650180E10E94C600AE
:100C40006C2F81E10E94C600C2E7D0E0FE016491F2
:100C500061112BC042E050E066E171E08AE791E06B
:100C60000E948F010E94AA0382E08093220162E029
:100C700083E00E94F50062E082E00E94F50010929D
:100C800033011092340180EB92E090930301809342
:100C9000020180916900837F886080936900E99AEE
:100CA00060E08FE00E94C60046C08AE791E00E94A3
:100CB00026022196892B51F6CDCF0E949F028111E9
:100CC0004AC08FEFC82FD0E0C0926D01D0926E0164
:100CD000E0926F01F092700161E08FE00E94C60027
:100CE000C03ED10509F04BC081E080936A010E94AB
:100CF000560380916D0190916E01A0916F01B091AA
:100D00007001C81AD90AEA0AFB0AE8ECCE16D10427
:100D1000E104F10470F060E08FE00E94C600609191
:100D20006C0180E10E94C60060916B0181E10E942C
:100D3000C6000E9495028FB7F894C0907201D090BF
:100D40007301E0907401F09075018FBF0E949F02C3
:100D5000882369F2B2CFE091340180913301E81722
:100D600009F4AFCFEF5FE03108F0E0E0E093340149
:100D7000F0E0ED5DFE4F80818111A4CFA2CFC13E96
:100D8000D10531F481E080936A0180936901AFCF8E
:100D9000C03FD10541F480916801811104C081E018
:100DA00080936801A4CF80916A01811107C080916E
:100DB0006901811103C080E090E002C080E091E011
:100DC00010926701109266018C0F9D1F8934910566
:100DD00009F476C30CF0F9C08A32910509F4DBC23C
:100DE0000CF078C08B31910509F4C0C2CCF582318A
:100DF000910509F4F6C1ECF48D30910509F441C474
:100E000024F4069709F484C492C48E30910509F441
:100E100007C4419709F08BC49091680181E089274C
:100E20008093490180933A01809337018093660152
:100E30007EC48531910509F48BC224F4449709F4EA
:100E4000D9C175C48631910509F4C8C24A9709F021
:100E50006EC49091680181E089278093420167C444
:100E60008232910509F4A5C2A4F48D31910509F4EB
:100E700099C20CF420C28E31910509F4B6C2819753
:100E800009F055C49091680181E08927809352014F
:100E90004EC48532910509F4B6C274F483329105CB
:100EA00009F417C2849709F042C49091680181E067
:100EB000892780934C013BC48632910509F49CC27A
:100EC000899709F034C49091680181E08927809363
:100ED00041012DC48A33910509F425C2D4F581332B
:100EE000910509F427C2A4F48C32910509F445C296
:100EF0000CF4F6C18D32910509F431C28E9709F0D8
:100F000016C49091680181E0892780935D010FC428
:100F10008433910509F4EBC174F48233910509F42B
:100F2000D1C1C39709F003C49091680181E089277A
:100F300080936001FCC38533910509F441C2C697D3
:100F400009F0F5C39091680181E0892780935E01E3
:100F5000EEC38134910509F49DC2A4F48C3391054C
:100F600009F412C20CF4CAC18D33910509F452C2BE
:100F7000CE9709F0DCC39091680181E089278093C6
:100F80004E01D5C38434910509F4DBC17CF482346D
:100F9000910509F4BAC18334910509F0C8C3909151
:100FA000680181E0892780934F01C1C38534910591
:100FB00009F40DC28634910509F0B9C39091680116
:100FC00081E0892780934601B2C38437910509F4F3
:100FD00036C20CF077C08A35910509F465C18CF5ED
:100FE0008E34910509F406C3ACF48B34910509F4F1
:100FF00093C10CF4BDC28C34910509F477C28D34D1
:10100000910509F094C39091680181E0892780934C
:101010003F018DC38535910509F4D6C24CF4823564
:10102000910509F421C28435910509F475C27FC385
:101030008835910509F430C38935910509F4D1C08B
:1010400076C38B36910509F4F3C1CCF48D35910547
:1010500009F4A4C22CF48B35910509F473C267C35B
:101060008636910509F413C18936910509F05FC3ED
:101070009091680181E0892780933D0158C38137B1
:10108000910509F41DC27CF48C36910509F4DEC18A
:101090008037910509F04BC39091680181E0892761
:1010A00080933E0144C38237910509F4BAC1833766
:1010B000910509F03CC39091680181E089278093F4
:1010C0005D0135C38431F1E09F0709F493C0C4F595
:1010D0008B37910509F4C3C2ACF48637910509F446
:1010E000CBC00CF4BAC18937910509F4C1C28A3763
:1010F000910509F01CC39091680181E089278093D4
:101100004D0115C38E37910509F4DCC27CF48C3790
:10111000910509F49BC28D37910509F008C39091A0
:10112000680181E089278093460101C38131E1E0B4
:101130009E0709F468C08231914009F4D6C2F7C213
:10114000813721E0920709F46BC0ECF48A35F1E0B5
:101150009F0709F4A9C02CF48A34914009F408C20D
:10116000E6C28B36F1E09F0709F47BC080379140DF
:1011700009F0DDC29091680181E0892780934901DF
:1011800080933B01D4C28537E1E09E0709F453C048
:10119000A4F4823721E0920709F458C084379140C3
:1011A00009F0C5C29091680181E0892780933A01D6
:1011B00080934E0180936601BAC28A37F1E09F079F
:1011C00009F475C28D37914009F0B1C29091680160
:1011D00081E0892780933A0180934D0180936601D5
:1011E000A6C29091680181E0892780933A0180939B
:1011F00039019DC29091680181E08927809349015E
:101200008093380194C29091680181E0892780938E
:10121000490180933A01809337018093660187C228
:101220009091680181E08927809349018093520160
:10123000809336017CC29091680181E08927809378
:101240003A01809356018093660171C290916801C2
:1012500081E0892780933A0180935E018093660143
:1012600066C29091680181E0892780933A0180935A
:101270005D01809366015BC29091680181E08927DE
:1012800080933A01809341018093660150C290910E
:10129000680181E0892780933A0180933E01809321
:1012A00066018093350143C29091680181E08927EE
:1012B000809340013CC29091680181E0892780932E
:1012C0003B0135C29091680181E0892780936101DB
:1012D0002EC29091680181E0892780934B0127C23B
:1012E0009091680181E089278093530120C29091F9
:1012F000680181E0892780935B0119C290916801A0
:1013000081E089278093580112C29091680181E0A1
:101310008927809350010BC29091680181E0892751
:101320008093480104C29091680181E089278093ED
:101330005101FDC19091680181E089278093590195
:10134000F6C19091680181E0892780934701EFC140
:101350009091680181E0892780933C01E8C19091D8
:10136000680181E0892780935401E1C1909168016F
:1013700081E0892780934301DAC19091680181E07F
:10138000892780935C01D3C19091680181E089270E
:1013900080935701CCC19091680181E089278093A7
:1013A0005A01C5C19091680181E089278093440169
:1013B000BEC19091680181E0892780934A01B7C13D
:1013C0009091680181E0892780935F01B0C190917D
:1013D000680181E0892780933E01A9C1909168014D
:1013E00081E0892780933D01A2C19091680181E04D
:1013F0008927809345019BC19091680181E08927ED
:1014000080934D0194C19091680181E08927809378
:1014100055018DC19091680181E089278093560123
:1014200086C19091680181E08927809345017FC141
:101430009091680181E089278093550178C190914E
:10144000680181E0892780935E0171C190916801F4
:1014500081E08927809356016AC19091680181E0FB
:10146000892780934E0163C12091680181E028277C
:101470002093490130913901311103C08CE190E092
:1014800002C085E090E0FC01E65CFE4F20833093D3
:1014900067014DC12091680181E02827209349010F
:1014A00030913901311103C08FE190E002C08AE12F
:1014B00090E0FC01E65CFE4F20833093670137C16A
:1014C0002091680181E0282720934901309139015A
:1014D000311103C087E190E002C082E290E0FC019C
:1014E000E65CFE4F20833093670121C120916801A3
:1014F00081E028272093490130913901311103C03F
:101500008DE090E002C088E090E0FC01E65CFE4FD8
:101510002083309367010BC12091680181E0282767
:101520002093490130913901311103C085E290E0E7
:1015300002C089E190E0FC01E65CFE4F208330931D
:101540006701F5C02091680181E0282720934901B7
:1015500030913901311103C08DE190E002C081E288
:1015600090E0FC01E65CFE4F208330936701DFC012
:101570002091680181E028272093490130913901A9
:10158000311103C080E290E002C088E190E0FC01EC
:10159000E65CFE4F208330936701C9C0209168014B
:1015A00081E028272093490130913901311103C08E
:1015B00081E190E002C089E090E0FC01E65CFE4F32
:1015C000208330936701B3C02091680181E0282710
:1015D0002093490130913901311103C08EE090E030
:1015E00002C086E190E0FC01E65CFE4F2083309370
:1015F00067019DC02091680181E02827209349015F
:1016000030913901311103C08EE190E002C084E0D5
:1016100090E0FC01E65CFE4F20833093670187C0B9
:101620002091680181E028272093490130913901F8
:10163000311103C080E190E002C081E090E0FC0144
:10164000E65CFE4F20833093670171C09091680182
:1016500081E08927809349018093610168C090915E
:10166000680181E0892780934901809358015FC018
:101670009091680181E0892780934901809350010E
:1016800056C09091680181E0892780933A01809348
:101690004F01809366014BC09091680181E08927DA
:1016A0008093490180933A018093660140C09091F4
:1016B000680181E0892780933A01809355018093E6
:1016C000660135C080916801882389F160916C01C1
:1016D00081E0682760936C0180E090E00E94BE0387
:1016E00080916C018093630122C0809168018823FE
:1016F000F1F060916B0181E0682760936B0181E0FC
:1017000090E00E94BE0380916B01809365010FC041
:1017100080916801882359F081E0809364010E94E0
:1017200056030E945601109264010E945603809154
:101730006701882331F080916601811102C0109207
:101740003A01809138018823B1F0809137018823D4
:1017500091F080913601882371F010923801109237
:1017600037011092360110923901109267011092E0
:1017700066010E94AA0380913801882371F180914B
:101780003701882351F180913501882331F110927E
:1017900038011092370110923501109239011092E0
:1017A000670110926601EAE3F1E0119281E0E2360E
:1017B000F807D9F7C1E0C09362010E945603C093B5
:1017C00043010E9456030E945601109262010E943A
:1017D00056030E94560110924301109268018091B5
:1017E0006901882319F01092690181CA10926A0177
:1017F0007ECAF999FECF92BD81BDF89A992780B52E
:101800000895262FF999FECF1FBA92BD81BD20BD44
:101810000FB6F894FA9AF99A0FBE01960895EE0F52
:10182000FF1F0590F491E02D099481E090E0F89479
:081830000C941A0CF894FFCF90
:101838008E018E010000000026028F01BD01730297
:0A184800EE01CC01E0010D0A0000E2
:00000001FF
