:100000000C9473000C946E040C9447040C949B00A5
:100010000C949B000C949B000C949B000C949B00F4
:100020000C949B000C949B000C949B000C949B00E4
:100030000C949B000C949B000C949B000C949B00D4
:100040000C94FD030C949B000C94BB040C9495043D
:100050000C949B000C949B000C949B000C949B00B4
:100060000C949B000C949B000000000023002600D1
:1000700029005A582050532F32204B6579626F6106
:10008000726420636F6E74726F6C6C65722076316F
:100090002E300000000000240027002A000000008D
:1000A00000250028002B00040404040404040402B6
:1000B0000202020202030303030303010204081005
:1000C00020408001020408102001020408102000D2
:1000D0000000080002010000030407000000000007
:1000E00000000000ED0411241FBECFEFD8E0DEBFFA
:1000F000CDBF11E0A0E0B1E0E2EBF7E102C0059076
:100100000D92AA31B107D9F722E0AAE1B1E001C00E
:100110001D92A731B207E1F710E0C3E7D0E004C0B9
:100120002197FE010E94CC0BC237D107C9F70E946C
:1001300020050C94D70B0C940000833081F028F438
:10014000813099F08230A1F008958730A9F088308D
:10015000B9F08430D1F4809180008F7D03C080910C
:1001600080008F7780938000089584B58F7702C0D8
:1001700084B58F7D84BD08958091B0008F7703C0D2
:100180008091B0008F7D8093B00008951F93CF932E
:10019000DF93282F30E0F901E153FF4F8491F901FB
:1001A000E554FF4FD491F901E955FF4FC491CC2399
:1001B000C1F0162F81110E949D00EC2FF0E0EE0F90
:1001C000FF1FE356FF4FA591B4919FB7F89411110B
:1001D00004C08C91D095D82302C0EC91DE2BDC9327
:1001E0009FBFDF91CF911F910895CF93DF9390E050
:1001F000FC01E554FF4F2491FC01E955FF4F849128
:10020000882361F190E0880F991FFC01ED56FF4FA4
:10021000C591D491FC01E356FF4FA591B4916111B2
:1002200009C09FB7F8948881209582238883EC9138
:100230002E230BC0623061F49FB7F8948881322F6F
:10024000309583238883EC912E2B2C939FBF06C07F
:100250008FB7F894E8812E2B28838FBFDF91CF9141
:1002600008953FB7F8948091740190917501A09121
:100270007601B091770126B5A89B05C02F3F19F0F4
:100280000196A11DB11D3FBFBA2FA92F982F882716
:10029000820F911DA11DB11DBC01CD0142E0660F71
:1002A000771F881F991F4A95D1F708958F929F92C3
:1002B000AF92BF92CF92DF92EF92FF920E943101F4
:1002C0004B015C0184EFC82EDD24D394E12CF12C8A
:1002D0000E943101DC01CB0188199909AA09BB09E7
:1002E000883E9340A105B10598F321E0C21AD108D8
:1002F000E108F10888EE880E83E0981EA11CB11C6D
:10030000C114D104E104F10419F7FF90EF90DF90DC
:10031000CF90BF90AF909F908F9008950895CF9207
:10032000DF92EF92FF920F931F93CF93DF936C01B5
:100330007A018B01C0E0D0E0CE15DF0581F0D80155
:100340006D918D01D601ED91FC910190F081E02D30
:10035000C6010995892B11F02196EECF7E01C701C8
:10036000DF91CF911F910F91FF90EF90DF90CF9091
:100370000895089580E090E00895FC01538D448D28
:10038000252F30E0842F90E0821B930B541710F040
:10039000CF96089501970895FC01918D828D98174D
:1003A00061F0828DDF01A80FB11D5D968C91928D59
:1003B0009F5F9F73928F90E008958FEF9FEF089556
:1003C000FC01918D828D981731F0828DE80FF11D1F
:1003D000858D90E008958FEF9FEF0895FC01918D3A
:1003E000228D892F90E0805C9F4F821B91098F7333
:1003F0009927089588E791E00E94EE0121E0892B7A
:1004000009F420E0822F0895FC01848DDF01A80FFC
:10041000B11DA35ABF4F2C91848D90E001968F732C
:100420009927848FA689B7892C93A089B1898C914B
:10043000837080648C93938D848D981306C002889A
:10044000F389E02D80818F7D80830895EF92FF9264
:100450000F931F93CF93DF93EC0181E0888F9B8DE7
:100460008C8D981305C0E889F989808185FD26C0A7
:10047000F62E0B8D10E00F5F1F4F0F731127E02E2C
:100480008C8DE8120CC00FB607FCFACFE889F98909
:10049000808185FFF5CFCE010E940402F1CF8B8DC4
:1004A000FE01E80FF11DE35AFF4FF0829FB7F89469
:1004B0000B8FEA89FB89808180620AC09FB7F8941C
:1004C000EE89FF896083E889F9898081837080647F
:1004D00080839FBF81E090E0DF91CF911F910F91CA
:1004E000FF90EF900895CF93DF93EC01888D8823E0
:1004F000C9F0EA89FB89808185FD05C0A889B98991
:100500008C9186FD0FC00FB607FCF5CF808185FF6B
:10051000F2CFA889B9898C9185FFEDCFCE010E94D9
:100520000402E7CFDF91CF91089580E090E0892B1E
:1005300029F00E94FA0181110C9400000895909115
:10054000340180913301981749F0809134019091E2
:100550003301891B87FF03C0805F089580E0089501
:10056000CF92DF92EF92FF920F931F93CF93DF937F
:100570002091220130E0F901E153FF4F8491F9010C
:10058000E554FF4FD491F901E955FF4FC491CC23B5
:1005900079F081110E949D00EC2FF0E0EE0FFF1F1B
:1005A000E859FF4FA591B491EC91ED2391E009F446
:1005B00090E08FB7F8944091700150917101609173
:1005C0007201709173018FBF00911D0110911E0186
:1005D00020911F01309120016A017B01C01AD10ACC
:1005E000E20AF30A970186010B3F11052105310547
:1005F00010F010921C0140931D0150931E01609356
:100600001F017093200180911C018F5F80931C015A
:100610008A3048F4823060F48130E9F510921B0191
:1006200010921A013AC08A30B1F08B30E9F033C031
:1006300080911A01890F80931A0120911B0130E0EB
:1006400035952795911102C080E001C080E8282BE4
:1006500020931B0122C080911A018170981301C060
:100660008DEF80931A0119C080911A018D3F98F483
:10067000809133018F5F803108F080E090913401E8
:10068000891749F0E82FF0E090911B01ED5DFE4FD6
:1006900090838093330110921C01DF91CF911F91C1
:1006A0000F91FF90EF90DF90CF900895CF92DF925F
:1006B000EF92FF921F93CF93DF9310E0D0E0C12C15
:1006C000D12C7601C394212F80E090E0C0E02C3241
:1006D000A8F4E22FF0E0E65CFE4F3081B701A601FE
:1006E000082E04C0440F551F661F771F0A94D2F7C7
:1006F000332311F0C42B02C04095C42301962F5F11
:100700008830910521F7DF5F9091150280911602E4
:100710009CBD8DBD60E08AE00E94C600DEBD000089
:100720000DB407FEFDCF8EB5CEBD00000DB407FEA3
:10073000FDCF8EB561E08AE00E94C600185FD6301A
:1007400009F0C1CFDF91CF911F91FF90EF90DF9023
:10075000CF900895EAE3F1E0119281E0E236F807E4
:10076000D9F781E0809362010E9456030E945601EE
:10077000109262010C9456030E94D20B0F931F93A8
:10078000CF938C01611102C0C4E101C0CAE0C8016D
:100790000E94B60BC81739F06C2FC801CF911F917A
:1007A0000F910C94BE0BCF911F910F9108950F9351
:1007B0001F93CF93DF938C01C62F0E94B60B8A3014
:1007C00011F0843129F461E08A3089F060E00FC0D3
:1007D000C11102C0D4E101C0DAE0C8010E94B60B29
:1007E000D81721F06D2FC8010E94BE0B6C2F862FE9
:1007F000DF91CF911F910F9108951F920F920FB625
:100800000F9211242F933F938F939F93AF93BF9396
:100810008091700190917101A0917201B09173016A
:1008200030916F0123E0230F2D3720F40196A11D95
:10083000B11D05C026E8230F0296A11DB11D20930E
:100840006F018093700190937101A0937201B09336
:1008500073018091740190917501A0917601B0911E
:1008600077010196A11DB11D8093740190937501CC
:10087000A0937601B0937701BF91AF919F918F9133
:100880003F912F910F900FBE0F901F9018951F92C0
:100890000F920FB60F9211242F933F934F935F93B4
:1008A0006F937F938F939F93AF93BF93EF93FF9338
:1008B000E0910201F09103010995FF91EF91BF9141
:1008C000AF919F918F917F916F915F914F913F91E8
:1008D0002F910F900FBE0F901F9018951F920F929F
:1008E0000FB60F9211242F933F934F935F936F9303
:1008F0007F938F939F93AF93BF93EF93FF93E09179
:100900000001F09101010995FF91EF91BF91AF9125
:100910009F918F917F916F915F914F913F912F9117
:100920000F900FBE0F901F9018951F920F920FB649
:100930000F9211242F933F934F935F936F937F9365
:100940008F939F93AF93BF93EF93FF9388E791E0CB
:100950000E940402FF91EF91BF91AF919F918F91FF
:100960007F916F915F914F913F912F910F900FBEAB
:100970000F901F9018951F920F920FB60F9211248F
:100980002F938F939F93EF93FF93E0918801F091C2
:1009900089018081E0918E01F0918F0182FD12C06A
:1009A0009081809191018F5F8F73209192018217C6
:1009B00051F0E0919101F0E0E858FE4F958F80935F
:1009C000910101C08081FF91EF919F918F912F91B3
:1009D0000F900FBE0F901F901895E8E7F1E013827B
:1009E000128288EE93E0A0E0B0E084839583A68332
:1009F000B78388E091E09183808385EC90E09587D0
:100A0000848784EC90E09787868780EC90E0918BD8
:100A1000808B81EC90E0938B828B82EC90E0958BC5
:100A2000848B86EC90E0978B868B118E128E138EC2
:100A3000148EE5E1F2E080E5808381E08183089512
:100A4000789484B5826084BD84B5816084BD85B5A9
:100A5000826085BD85B5816085BD80916E008160B5
:100A600080936E001092810080918100826080935B
:100A7000810080918100816080938100809180005D
:100A80008160809380008091B10084608093B10088
:100A90008091B00081608093B00080917A00846082
:100AA00080937A0080917A00826080937A008091AE
:100AB0007A00816080937A0080917A0080688093C8
:100AC0007A001092C100E0918801F091890182E0E2
:100AD0008083E0918401F09185011082E09186018C
:100AE000F091870180E1808310929001E0918C0168
:100AF000F0918D0186E08083E0918A01F0918B0175
:100B0000808180618083E0918A01F0918B018081F6
:100B100088608083E0918A01F0918B0180818068F8
:100B20008083E0918A01F0918B0180818F7D8083A9
:100B300088E791E00E947302CFB7F8948091210179
:100B4000811127C0E1EBF0E08491E5ECF0E09491B5
:100B5000E82FF0E0EE0FFF1FED56FF4FA591B49187
:100B6000EC91E92321F461E08AE00E94C60061E093
:100B70008AE00E94F5008CB580618CBD8CB58064E4
:100B80008CBD61E08DE00E94F50061E08BE00E9489
:100B9000F500809121018F5F80932101CFBF61E03B
:100BA0008AE00E94F50061E08AE00E94C60061E0F0
:100BB0008EE00E94F50061E08FE00E94F50061E0A8
:100BC00080E10E94F50061E081E10E94F50061E0B2
:100BD0008EE00E94C60061E08FE00E94C60060E0E7
:100BE00080E10E94C60060E081E10E94C60062E0F0
:100BF00083E00E94F50062E082E00E94F500EAE3F3
:100C0000F1E0119221E0E636F207D9F760916A012E
:100C100080E090E00E94D70380936A0160916901AF
:100C200081E090E00E94D703C82F80936901609112
:100C30006A01609363018093650180E10E94C600B0
:100C40006C2F81E10E94C600C2E7D0E0FE016491F2
:100C500061112DC042E050E066E171E088E791E06B
:100C60000E948F010E94AA0382E08093220162E029
:100C700083E00E94F50062E082E00E94F50010929D
:100C800033011092340180EB92E090930301809342
:100C9000020180916900837F886080936900E99AEE
:100CA00060E08FE00E94C600C2E6D1E046C088E75F
:100CB00091E00E9426022196892B41F6CBCF0E941B
:100CC0009F0281114AC08FEF082F10E0C0926B0184
:100CD000D0926C01E0926D01F0926E0161E08FE0C4
:100CE0000E94C600003E110509F04BC081E08093D0
:100CF00068010E94560380916B0190916C01A09154
:100D00006D01B0916E01C81AD90AEA0AFB0A88EC93
:100D1000C816D104E104F10470F060E08FE00E9495
:100D2000C60060916A0180E10E94C600609169017D
:100D300081E10E94C6000E9495028FB7F894C0908E
:100D40007001D0907101E0907201F09073018FBF3B
:100D50000E949F02882369F2B2CFE0913401809112
:100D60003301E81709F4AFCFEF5FE03108F0E0E0BE
:100D7000E0933401F0E0ED5DFE4F80818111A4CF5E
:100D8000A2CF013E110531F481E080936801809388
:100D90006701AFCF003F110541F4809166018111D9
:100DA00004C081E080936601A4CF80916801811125
:100DB00007C080916701811103C080E090E002C00C
:100DC00080E091E0800F911F8934910509F460C3A0
:100DD0000CF0F7C08A32910509F4C9C20CF076C054
:100DE0008B31910509F4AEC2BCF58231910509F44D
:100DF000F0C1DCF48D30910509F419C424F4069790
:100E000009F456C464C48E30910509F4E1C34197D6
:100E100009F05DC49091660181E0892780934901C2
:100E200080933A018093370152C48531910509F4CA
:100E30007BC224F4449709F4D5C149C48631910595
:100E400009F4B8C24A9709F042C49091660181E062
:100E50008927809342013BC48232910509F495C2EF
:100E6000A4F48D31910509F489C20CF410C28E31BD
:100E7000910509F4A6C2819709F029C490916601F1
:100E800081E089278093520122C48532910509F4BB
:100E9000A6C274F48332910509F407C2849709F05D
:100EA00016C49091660181E0892780934C010FC49C
:100EB0008632910509F48CC2899709F008C4909193
:100EC000660181E089278093410101C48A3391053D
:100ED00009F415C2D4F58133910509F417C2A4F4BD
:100EE0008C32910509F435C20CF4E6C18D329105BE
:100EF00009F421C28E9709F0EAC39091660181E05E
:100F0000892780935D01E3C38433910509F4DBC134
:100F100074F48233910509F4C1C1C39709F0D7C3B2
:100F20009091660181E0892780936001D0C3853369
:100F3000910509F431C2C69709F0C9C390916601C1
:100F400081E0892780935E01C2C38134910509F451
:100F50008BC2A4F48C33910509F402C20CF4BAC11B
:100F60008D33910509F442C2CE9709F0B0C3909138
:100F7000660181E0892780934E01A9C384349105DD
:100F800009F4CBC17CF48234910509F4AAC18334FD
:100F9000910509F09CC39091660181E089278093B7
:100FA0004F0195C38534910509F4FDC1863491053F
:100FB00009F08DC39091660181E0892780934601F5
:100FC00086C38437910509F426C20CF077C08A35B0
:100FD000910509F455C18CF58E34910509F4E4C2EC
:100FE000ACF48B34910509F483C10CF4A1C28C34A8
:100FF000910509F461C28D34910509F068C390919F
:10100000660181E0892780933F0161C385359105A1
:1010100009F4B6C24CF48235910509F411C2843545
:10102000910509F45DC253C38835910509F408C3DD
:101030008935910509F4CDC04AC38B36910509F471
:10104000E3C1CCF48D35910509F486C22CF48B35BF
:10105000910509F459C23BC38636910509F405C1CF
:101060008936910509F033C39091660181E08927A3
:1010700080933D012CC38137910509F409C27CF4AA
:101080008C36910509F4CEC18037910509F01FC354
:101090009091660181E0892780933E0118C38237D1
:1010A000910509F4AAC18337910509F010C3909105
:1010B000660181E0892780935D0109C38431F1E0F5
:1010C0009F0709F48FC0C4F58B37910509F49DC2C1
:1010D000ACF48637910509F4BFC00CF4AAC1893776
:1010E000910509F49BC28A37910509F0F0C29091ED
:1010F000660181E0892780934D01E9C28E37910511
:1011000009F4B0C27CF48C37910509F475C28D37AF
:10111000910509F0DCC29091660181E089278093F6
:101120004601D5C28131E1E09E0709F464C08231F5
:10113000914009F4AAC2CBC2813721E0920709F499
:1011400065C0ECF48A35F1E09F0709F499C02CF4EE
:101150008A34914009F4ECC1BAC28B36F1E09F07A2
:1011600009F471C08037914009F0B1C290916601D5
:1011700081E089278093490180933B01A8C285378C
:10118000E1E09E0709F44DC094F4823721E0920714
:1011900009F450C08437914009F099C290916601DA
:1011A00081E0892780933A0180934E0190C28A376B
:1011B000F1E09F0709F44DC28D37914009F087C2D5
:1011C0009091660181E0892780933A0180934D01D7
:1011D0007EC29091660181E0892780933A018093D5
:1011E000390175C29091660181E089278093490198
:1011F000809338016CC29091660181E089278093C9
:10120000490180933A018093370161C29091660150
:1012100081E08927809349018093520180933601B0
:1012200056C29091660181E0892780933A018093AC
:1012300056014DC29091660181E0892780933A0161
:1012400080935E0144C29091660181E0892780937A
:101250003A0180935D013BC29091660181E089274C
:1012600080933A018093410132C29091660181E0FE
:10127000892780933A0180933E018093350127C2EC
:101280009091660181E089278093400120C290916E
:10129000660181E0892780933B0119C29091660124
:1012A00081E089278093610112C29091660181E0FB
:1012B000892780934B010BC29091660181E08927B9
:1012C0008093530104C29091660181E08927809345
:1012D0005B01FDC19091660181E0892780935801EF
:1012E000F6C19091660181E0892780935001EFC19A
:1012F0009091660181E0892780934801E8C190912F
:10130000660181E0892780935101E1C190916601D6
:1013100081E0892780935901DAC19091660181E0CB
:10132000892780934701D3C19091660181E0892785
:1013300080933C01CCC19091660181E08927809324
:101340005401C5C19091660181E0892780934301D2
:10135000BEC19091660181E0892780935C01B7C18D
:101360009091660181E0892780935701B0C19091E7
:10137000660181E0892780935A01A9C19091660195
:1013800081E0892780934401A2C19091660181E0A8
:10139000892780934A019BC19091660181E089274A
:1013A00080935F0194C19091660181E089278093C9
:1013B0003E018DC19091660181E0892780933D01B6
:1013C00086C19091660181E08927809345017FC1A4
:1013D0009091660181E0892780934D0178C19091B9
:1013E000660181E089278093550171C19091660162
:1013F00081E08927809356016AC19091660181E05E
:1014000089278093450163C19091660181E0892716
:10141000809355015CC19091660181E0892780939A
:101420005E0155C19091660181E089278093560144
:101430004EC19091660181E0892780934E0147C19A
:101440002091660181E0282720934901809139018C
:10145000811103C08CE190E002C085E090E0FC01C6
:10146000E65CFE4F208333C12091660181E028278E
:101470002093490180913901811103C08FE190E0EF
:1014800002C08AE190E0FC01E65CFE4F20831FC1B0
:101490002091660181E0282720934901809139013C
:1014A000811103C087E190E002C082E290E0FC017C
:1014B000E65CFE4F20830BC12091660181E0282766
:1014C0002093490180913901811103C08DE090E0A2
:1014D00002C088E090E0FC01E65CFE4F2083F7C08C
:1014E0002091660181E028272093490180913901EC
:1014F000811103C085E290E002C089E190E0FC0127
:10150000E65CFE4F2083E3C02091660181E028273E
:101510002093490180913901811103C08DE190E050
:1015200002C081E290E0FC01E65CFE4F2083CFC068
:101530002091660181E0282720934901809139019B
:10154000811103C080E290E002C088E190E0FC01DC
:10155000E65CFE4F2083BBC02091660181E0282716
:101560002093490180913901811103C081E190E00C
:1015700002C089E090E0FC01E65CFE4F2083A7C03A
:101580002091660181E0282720934901809139014B
:10159000811103C08EE090E002C086E190E0FC0182
:1015A000E65CFE4F208393C02091660181E02827EE
:1015B0002093490180913901811103C08EE190E0AF
:1015C00002C084E090E0FC01E65CFE4F20837FC017
:1015D0002091660181E028272093490180913901FB
:1015E000811103C080E190E002C081E090E0FC0145
:1015F000E65CFE4F20836BC09091660181E08927F5
:10160000809349018093610162C09091660181E0FD
:101610008927809349018093580159C090916601B0
:1016200081E08927809349018093500150C09091B7
:10163000660181E0892780933A0180934F0147C07A
:101640009091660181E089278093490180933A0156
:101650003EC09091660181E0892780933A01809392
:10166000550135C080916601882389F160916A0136
:1016700081E0682760936A0180E090E00E94BE03E9
:1016800080916A018093630122C080916601882362
:10169000F1F06091690181E068276093690181E060
:1016A00090E00E94BE0380916901809365010FC0A4
:1016B00080916601882359F081E0809364010E9443
:1016C00056030E945601109264010E9456038091B5
:1016D0003801882391F080913701882371F080913F
:1016E0003601882351F01092380110923701109280
:1016F0003601109239010E94AA0380913801882393
:1017000049F180913701882329F18091350188239F
:1017100009F11092380110923701109235011092A0
:101720003901EAE3F1E01192CE17DF07E1F711E0AA
:10173000109362010E945603109343010E945603C6
:101740000E945601109262010E9456030E945601A7
:10175000109243011092660180916701882319F06D
:1017600010926701C6CA10926801C3CAF999FECFE8
:1017700092BD81BDF89A992780B50895262FF999D1
:10178000FECF1FBA92BD81BD20BD0FB6F894FA9A64
:10179000F99A0FBE01960895EE0FFF1F0590F49180
:1017A000E02D099481E090E0F8940C94D70BF89424
:0217B000FFCF69
:1017B2008E018E010000000026028F01BD0173021E
:0A17C200EE01CC01E0010D0A000069
:00000001FF
