:100000000C9473000C9474040C944D040C949B0099
:100010000C949B000C949B000C949B000C949B00F4
:100020000C949B000C949B000C949B000C949B00E4
:100030000C949B000C949B000C949B000C949B00D4
:100040000C9403040C949B000C94C1040C949B042A
:100050000C949B000C949B000C949B000C949B00B4
:100060000C949B000C949B000000000023002600D1
:1000700029005A582050532F32204B6579626F6106
:10008000726420636F6E74726F6C6C65722076316F
:100090002E300000000000240027002A000000008D
:1000A00000250028002B00040404040404040402B6
:1000B0000202020202030303030303010204081005
:1000C00020408001020408102001020408102000D2
:1000D0000000080002010000030407000000000007
:1000E00000000000F30411241FBECFEFD8E0DEBFF4
:1000F000CDBF11E0A0E0B1E0E4EDF7E102C0059072
:100100000D92AA31B107D9F722E0AAE1B1E001C00E
:100110001D92A331B207E1F710E0C3E7D0E004C0BD
:100120002197FE010E94DD0BC237D107C9F70E945B
:1001300026050C94E80B0C940000833081F028F421
:10014000813099F08230A1F008958730A9F088308D
:10015000B9F08430D1F4809180008F7D03C080910C
:1001600080008F7780938000089584B58F7702C0D8
:1001700084B58F7D84BD08958091B0008F7703C0D2
:100180008091B0008F7D8093B00008951F93CF932E
:10019000DF93282F30E0F901E153FF4F8491F901FB
:1001A000E554FF4FD491F901E955FF4FC491CC2399
:1001B000C1F0162F81110E949D00EC2FF0E0EE0F90
:1001C000FF1FE356FF4FA591B4919FB7F89411110B
:1001D00004C08C91D095D82302C0EC91DE2BDC9327
:1001E0009FBFDF91CF911F910895CF93DF9390E050
:1001F000FC01E554FF4F2491FC01E955FF4F849128
:10020000882361F190E0880F991FFC01ED56FF4FA4
:10021000C591D491FC01E356FF4FA591B4916111B2
:1002200009C09FB7F8948881209582238883EC9138
:100230002E230BC0623061F49FB7F8948881322F6F
:10024000309583238883EC912E2B2C939FBF06C07F
:100250008FB7F894E8812E2B28838FBFDF91CF9141
:1002600008953FB7F8948091700190917101A09129
:100270007201B091730126B5A89B05C02F3F19F0FC
:100280000196A11DB11D3FBFBA2FA92F982F882716
:10029000820F911DA11DB11DBC01CD0142E0660F71
:1002A000771F881F991F4A95D1F708958F929F92C3
:1002B000AF92BF92CF92DF92EF92FF926B017C01DF
:1002C0000E9431014B015C01C114D104E104F1042D
:1002D000F1F00E943101DC01CB0188199909AA09CA
:1002E000BB09883E9340A105B10570F321E0C21A15
:1002F000D108E108F10888EE880E83E0981EA11C61
:10030000B11CC114D104E104F10419F7DDCFFF9051
:10031000EF90DF90CF90BF90AF909F908F90089517
:100320000895CF92DF92EF92FF920F931F93CF9396
:10033000DF936C017A018B01C0E0D0E0CE15DF05C0
:1003400081F0D8016D918D01D601ED91FC91019064
:10035000F081E02DC6010995892B11F02196EECF91
:100360007E01C701DF91CF911F910F91FF90EF9018
:10037000DF90CF900895089580E090E00895FC010B
:10038000538D448D252F30E0842F90E0821B930BFA
:10039000541710F0CF96089501970895FC01918DA0
:1003A000828D981761F0828DDF01A80FB11D5D96D7
:1003B0008C91928D9F5F9F73928F90E008958FEF45
:1003C0009FEF0895FC01918D828D981731F0828DF9
:1003D000E80FF11D858D90E008958FEF9FEF089550
:1003E000FC01918D228D892F90E0805C9F4F821BB4
:1003F00091098F739927089584E791E00E94F00195
:1004000021E0892B09F420E0822F0895FC01848DDE
:10041000DF01A80FB11DA35ABF4F2C91848D90E02E
:1004200001968F739927848FA689B7892C93A08909
:10043000B1898C91837080648C93938D848D981393
:1004400006C00288F389E02D80818F7D8083089526
:10045000EF92FF920F931F93CF93DF93EC0181E014
:10046000888F9B8D8C8D981305C0E889F9898081D0
:1004700085FD26C0F62E0B8D10E00F5F1F4F0F730A
:100480001127E02E8C8DE8120CC00FB607FCFACFB6
:10049000E889F989808185FFF5CFCE010E940602A7
:1004A000F1CF8B8DFE01E80FF11DE35AFF4FF08273
:1004B0009FB7F8940B8FEA89FB89808180620AC01C
:1004C0009FB7F894EE89FF896083E889F989808174
:1004D0008370806480839FBF81E090E0DF91CF9143
:1004E0001F910F91FF90EF900895CF93DF93EC0150
:1004F000888D8823C9F0EA89FB89808185FD05C044
:10050000A889B9898C9186FD0FC00FB607FCF5CF7D
:10051000808185FFF2CFA889B9898C9185FFEDCFC5
:10052000CE010E940602E7CFDF91CF91089580E0CF
:1005300090E0892B29F00E94FC0181110C940000AD
:1005400008959091340180913301981749F080917A
:10055000340190913301891B87FF03C0805F0895A8
:1005600080E00895CF92DF92EF92FF920F931F9356
:10057000CF93DF932091220130E0F901E153FF4F47
:100580008491F901E554FF4FD491F901E955FF4FEA
:10059000C491CC2379F081110E949D00EC2FF0E0F2
:1005A000EE0FFF1FE859FF4FA591B491EC91ED2399
:1005B00091E009F490E08FB7F89440916C0150916C
:1005C0006D0160916E0170916F018FBF00911D01EF
:1005D00010911E0120911F01309120016A017B01C1
:1005E000C01AD10AE20AF30A970186010B3F1105EE
:1005F0002105310510F010921C0140931D0150930C
:100600001E0160931F017093200180911C018F5F78
:1006100080931C018A3048F4823060F48130E9F51F
:1006200010921B0110921A013AC08A30B1F08B303F
:10063000E9F033C080911A01890F80931A0120914B
:100640001B0130E035952795911102C080E001C073
:1006500080E8282B20931B0122C080911A01817011
:10066000981301C08DEF80931A0119C080911A016F
:100670008D3F98F4809133018F5F803108F080E0E6
:1006800090913401891749F0E82FF0E090911B0117
:10069000ED5DFE4F90838093330110921C01DF913A
:1006A000CF911F910F91FF90EF90DF90CF90089521
:1006B000CF92DF92EF92FF921F93CF93DF9310E0E0
:1006C000D0E0C12CD12C7601C394212F80E090E0A2
:1006D000C0E02C32A8F4E22FF0E0E65CFE4F30815F
:1006E000B701A601082E04C0440F551F661F771FCF
:1006F0000A94D2F7332311F0C42B02C04095C423CF
:1007000001962F5F8830910521F7DF5F90911102EC
:10071000809112029CBD8DBD60E08AE00E94C600FF
:10072000DEBD00000DB407FEFDCF8EB5CEBD0000CE
:100730000DB407FEFDCF8EB561E08AE00E94C600D1
:10074000185FD63009F0C1CFDF91CF911F91FF9094
:10075000EF90DF90CF900895EAE3F1E0119281E00D
:10076000E236F807D9F781E0809362010E945803CE
:100770006AE070E080E090E00E9456011092620111
:100780000C9458030E94E30B0F931F93CF938C019B
:10079000611102C0C4E101C0CAE0C8010E94C70BD8
:1007A000C81739F06C2FC801CF911F910F910C948D
:1007B000CF0BCF911F910F9108950F931F93CF935C
:1007C000DF938C01C62F0E94C70B8A3011F0843151
:1007D00029F461E08A3089F060E00FC0C11102C0E5
:1007E000D4E101C0DAE0C8010E94C70BD81721F09C
:1007F0006D2FC8010E94CF0B6C2F862FDF91CF91F8
:100800001F910F9108951F920F920FB60F9211240E
:100810002F933F938F939F93AF93BF9380916C01DE
:1008200090916D01A0916E01B0916F0130916B01BB
:1008300023E0230F2D3720F40196A11DB11D05C023
:1008400026E8230F0296A11DB11D20936B01809312
:100850006C0190936D01A0936E01B0936F01809134
:10086000700190917101A0917201B0917301019694
:10087000A11DB11D8093700190937101A09372012D
:10088000B0937301BF91AF919F918F913F912F9141
:100890000F900FBE0F901F9018951F920F920FB6DA
:1008A0000F9211242F933F934F935F936F937F93F6
:1008B0008F939F93AF93BF93EF93FF93E0910201C8
:1008C000F09103010995FF91EF91BF91AF919F9135
:1008D0008F917F916F915F914F913F912F910F90E9
:1008E0000FBE0F901F9018951F920F920FB60F9288
:1008F00011242F933F934F935F936F937F938F9325
:100900009F93AF93BF93EF93FF93E0910001F0911A
:1009100001010995FF91EF91BF91AF919F918F9147
:100920007F916F915F914F913F912F910F900FBEEB
:100930000F901F9018951F920F920FB60F921124CF
:100940002F933F934F935F936F937F938F939F93D7
:10095000AF93BF93EF93FF9384E791E00E94060269
:10096000FF91EF91BF91AF919F918F917F916F9187
:100970005F914F913F912F910F900FBE0F901F905D
:1009800018951F920F920FB60F9211242F938F93E9
:100990009F93EF93FF93E0918401F0918501808113
:1009A000E0918A01F0918B0182FD12C090818091CB
:1009B0008D018F5F8F7320918E01821751F0E0912E
:1009C0008D01F0E0EC58FE4F958F80938D0101C0B2
:1009D0008081FF91EF919F918F912F910F900FBE8A
:1009E0000F901F901895E4E7F1E01382128288EED1
:1009F00093E0A0E0B0E084839583A683B78388E08A
:100A000091E09183808385EC90E09587848784ECE6
:100A100090E09787868780EC90E0918B808B81ECCB
:100A200090E0938B828B82EC90E0958B848B86ECAC
:100A300090E0978B868B118E128E138E148EE1E1CF
:100A4000F2E080E5808381E081830895789484B525
:100A5000826084BD84B5816084BD85B5826085BDBA
:100A600085B5816085BD80916E00816080936E0048
:100A7000109281008091810082608093810080913A
:100A800081008160809381008091800081608093EB
:100A900080008091B10084608093B1008091B000AB
:100AA00081608093B00080917A00846080937A00A6
:100AB00080917A00826080937A0080917A008160D0
:100AC00080937A0080917A00806880937A001092F7
:100AD000C100E0918401F091850182E08083E09182
:100AE0008001F09181011082E0918201F0918301F7
:100AF00080E1808310928C01E0918801F09189015E
:100B000086E08083E0918601F09187018081806199
:100B10008083E0918601F0918701808188608083E5
:100B2000E0918601F0918701808180688083E09167
:100B30008601F091870180818F7D808384E791E039
:100B40000E947502CFB7F89480912101811127C0CE
:100B5000E1EBF0E08491E5ECF0E09491E82FF0E037
:100B6000EE0FFF1FED56FF4FA591B491EC91E923D5
:100B700021F461E08AE00E94C60061E08AE00E9400
:100B8000F5008CB580618CBD8CB580648CBD61E056
:100B90008DE00E94F50061E08BE00E94F5008091FD
:100BA00021018F5F80932101CFBF61E08AE00E9425
:100BB000F50061E08AE00E94C60061E08EE00E94DC
:100BC000F50061E08FE00E94F50061E080E10E94A5
:100BD000F50061E081E10E94F50061E08EE00E9495
:100BE000C60061E08FE00E94C60060E080E10E94E4
:100BF000C60060E081E10E94C60062E082E00E94DF
:100C0000F50062E083E00E94F500EAE3F1E0119272
:100C100021E0E636F207D9F76091660180E090E0C6
:100C20000E94DD03809366016091650181E090E0A0
:100C30000E94DD03C82F8093650160916601609377
:100C400063018093650180E10E94C6006C2F81E101
:100C50000E94C600C2E7D0E0FE01649161112BC082
:100C600042E050E066E171E084E791E00E9491018A
:100C70000E94AC0383E08093220162E082E00E9444
:100C8000F50062E083E00E94F500109233011092BB
:100C9000340182EB92E090930101809300018091F6
:100CA00069008C7F826080936900E89A60E08FE041
:100CB0000E94C60046C084E791E00E942802219667
:100CC000892B51F6CDCF0E94A10281114AC08FEF2E
:100CD000C82FD0E0C0926701D0926801E09269010C
:100CE000F0926A0161E08FE00E94C600C03ED1052B
:100CF00009F04BC081E0809364010E945803809109
:100D0000670190916801A0916901B0916A01C81AC8
:100D1000D90AEA0AFB0AE8ECCE16D104E104F10490
:100D200070F060E08FE00E94C6006091660180E193
:100D30000E94C6006091650181E10E94C6000E9488
:100D400097028FB7F894C0906C01D0906D01E0903D
:100D50006E01F0906F018FBF0E94A102882369F29B
:100D6000B2CFE091340180913301E81709F4AFCF9D
:100D7000EF5FE03108F0E0E0E0933401F0E0ED5D9A
:100D8000FE4F80818111A4CFA2CFC13ED10531F4A5
:100D900081E08093640180936301AFCFC03FD105B0
:100DA00041F480916201811104C081E0809362016D
:100DB000A4CF80916401811107C0809163018111EA
:100DC00003C080E090E002C080E091E08C0F9D1FA6
:100DD0008934910509F460C30CF0F7C08A3291059B
:100DE00009F4C9C20CF076C08B31910509F4AEC28A
:100DF000BCF58231910509F4F0C1DCF48D30910528
:100E000009F419C424F4069709F456C468C48E3052
:100E1000910509F4E1C3419709F061C49091620121
:100E200081E089278093490180933A0180933701BB
:100E300056C48531910509F47BC224F4449709F422
:100E4000D5C14DC48631910509F4B8C24A9709F05D
:100E500046C49091620181E08927809342013FC49A
:100E60008232910509F495C2A4F48D31910509F4FB
:100E700089C20CF410C28E31910509F4A6C2819783
:100E800009F02DC49091620181E08927809352017D
:100E900026C48532910509F4A6C274F48332910503
:100EA00009F407C2849709F01AC49091620181E0A5
:100EB000892780934C0113C48632910509F48CC2B2
:100EC000899709F00CC49091620181E08927809391
:100ED000410105C48A33910509F415C2D4F5813363
:100EE000910509F417C2A4F48C32910509F435C2B6
:100EF0000CF4E6C18D32910509F421C28E9709F0F8
:100F0000EEC39091620181E0892780935D01E7C380
:100F10008433910509F4DBC174F48233910509F43B
:100F2000C1C1C39709F0DBC39091620181E08927B9
:100F300080936001D4C38533910509F431C2C6970B
:100F400009F0CDC39091620181E0892780935E0111
:100F5000C6C38134910509F48BC2A4F48C33910586
:100F600009F402C20CF4BAC18D33910509F442C2EE
:100F7000CE9709F0B4C39091620181E089278093F4
:100F80004E01ADC38434910509F4CBC17CF48234A5
:100F9000910509F4AAC18334910509F0A0C3909189
:100FA000620181E0892780934F0199C385349105BF
:100FB00009F4FDC18634910509F091C39091620155
:100FC00081E08927809346018AC38437910509F41B
:100FD00026C20CF077C08A35910509F455C18CF50D
:100FE0008E34910509F4E4C2ACF48B34910509F414
:100FF00083C10CF4A1C28C34910509F461C28D3413
:10100000910509F06CC39091620181E0892780937A
:101010003F0165C38535910509F4B6C24CF48235AC
:10102000910509F411C28435910509F45DC257C3D5
:101030008835910509F408C38935910509F4CDC0B7
:101040004EC38B36910509F4E3C1CCF48D3591057F
:1010500009F486C22CF48B35910509F459C23FC3BB
:101060008636910509F405C18936910509F037C323
:101070009091620181E0892780933D0130C38137DF
:10108000910509F409C27CF48C36910509F4CEC1AE
:101090008037910509F023C39091620181E089278F
:1010A00080933E011CC38237910509F4AAC183379E
:1010B000910509F014C39091620181E08927809322
:1010C0005D010DC38431F1E09F0709F48FC0C4F5C1
:1010D0008B37910509F49DC2ACF48637910509F46C
:1010E000BFC00CF4AAC18937910509F49BC28A37A5
:1010F000910509F0F4C29091620181E08927809303
:101100004D01EDC28E37910509F4B0C27CF48C37E5
:10111000910509F475C28D37910509F0E0C29091EF
:10112000620181E0892780934601D9C28131E1E0E3
:101130009E0709F464C08231914009F4AAC2CFC26B
:10114000813721E0920709F465C0ECF48A35F1E0BB
:101150009F0709F499C02CF48A34914009F4ECC13A
:10116000BEC28B36F1E09F0709F471C08037914011
:1011700009F0B5C29091620181E08927809349010D
:1011800080933B01ACC28537E1E09E0709F44DC076
:1011900094F4823721E0920709F450C084379140DB
:1011A00009F09DC29091620181E0892780933A0104
:1011B00080934E0194C28A37F1E09F0709F44DC233
:1011C0008D37914009F08BC29091620181E08927AF
:1011D00080933A0180934D0182C29091620181E037
:1011E000892780933A018093390179C290916201F5
:1011F00081E08927809349018093380170C29091E2
:10120000620181E089278093490180933A018093AC
:10121000370165C29091620181E08927809349017D
:1012200080935201809336015AC29091620181E00D
:10123000892780933A018093560151C290916201AF
:1012400081E0892780933A0180935E0148C29091A2
:10125000620181E0892780933A0180935D013FC25A
:101260009091620181E0892780933A018093410146
:1012700036C29091620181E0892780933A01809380
:101280003E01809335012BC29091620181E0892754
:101290008093400124C29091620181E0892780936C
:1012A0003B011DC29091620181E089278093610119
:1012B00016C29091620181E0892780934B010FC291
:1012C0009091620181E089278093530108C2909137
:1012D000620181E0892780935B0101C290916201E4
:1012E00081E0892780935801FAC19091620181E0E1
:1012F000892780935001F3C19091620181E0892791
:1013000080934801ECC19091620181E0892780932C
:101310005101E5C19091620181E0892780935901D3
:10132000DEC19091620181E0892780934701D7C196
:101330009091620181E0892780933C01D0C1909116
:10134000620181E0892780935401C9C190916201B3
:1013500081E0892780934301C2C19091620181E0BD
:10136000892780935C01BBC19091620181E089274C
:1013700080935701B4C19091620181E089278093E5
:101380005A01ADC19091620181E0892780934401A7
:10139000A6C19091620181E0892780934A019FC193
:1013A0009091620181E0892780935F0198C19091BB
:1013B000620181E0892780933E0191C19091620191
:1013C00081E0892780933D018AC19091620181E08B
:1013D00089278093450183C19091620181E089272B
:1013E00080934D017CC19091620181E089278093B7
:1013F000550175C19091620181E089278093560162
:101400006EC19091620181E089278093450167C197
:101410009091620181E089278093550160C190918C
:10142000620181E0892780935E0159C19091620138
:1014300081E089278093560152C19091620181E039
:10144000892780934E014BC12091620181E02827BA
:101450002093490180913901811103C08CE190E012
:1014600002C085E090E0FC01E65CFE4F208337C1BE
:101470002091620181E02827209349018091390160
:10148000811103C08FE190E002C08AE190E0FC018D
:10149000E65CFE4F208323C12091620181E0282772
:1014A0002093490180913901811103C087E190E0C7
:1014B00002C082E290E0FC01E65CFE4F20830FC197
:1014C0002091620181E02827209349018091390110
:1014D000811103C08DE090E002C088E090E0FC0143
:1014E000E65CFE4F2083FBC02091620181E028274B
:1014F0002093490180913901811103C085E290E078
:1015000002C089E190E0FC01E65CFE4F2083E7C069
:101510002091620181E028272093490180913901BF
:10152000811103C08DE190E002C081E290E0FC01F6
:10153000E65CFE4F2083D3C02091620181E0282722
:101540002093490180913901811103C080E290E02C
:1015500002C088E190E0FC01E65CFE4F2083BFC042
:101560002091620181E0282720934901809139016F
:10157000811103C081E190E002C089E090E0FC01AC
:10158000E65CFE4F2083ABC02091620181E02827FA
:101590002093490180913901811103C08EE090E0D0
:1015A00002C086E190E0FC01E65CFE4F208397C01C
:1015B0002091620181E0282720934901809139011F
:1015C000811103C08EE190E002C084E090E0FC0154
:1015D000E65CFE4F208383C02091620181E02827D2
:1015E0002093490180913901811103C080E190E08D
:1015F00002C081E090E0FC01E65CFE4F20836FC0FA
:101600009091620181E08927809349018093610173
:1016100066C09091620181E089278093490180939F
:1016200058015DC09091620181E089278093490152
:101630008093500154C09091620181E0892780938A
:101640003A0180934F014BC09091620181E089275C
:101650008093490180933A0142C09091620181E0F8
:10166000892780933A018093550139C080916201A6
:101670008823A9F16091660181E068276093660183
:1016800080E090E00E94C403809166018093630132
:1016900026C080916201882311F16091650181E08B
:1016A00068276093650181E090E00E94C403809107
:1016B00065018093650113C080916201882379F0F0
:1016C00081E0809364010E9458036AE070E080E04A
:1016D00090E00E945601109264010E94580380918C
:1016E0003801882391F080913701882371F080912F
:1016F0003601882351F01092380110923701109270
:101700003601109239010E94AC0380913801882380
:1017100091F180913701882371F1809135018823FF
:1017200051F1109238011092370110923501109248
:101730003901EAE3F1E0119281E0E236F807D9F7E6
:10174000C1E0C09362010E945803C09343010E940C
:10175000580364EF71E080E090E00E94560110921F
:1017600062010E94580364EF71E080E090E00E9403
:101770005601109243011092620180916301882307
:1017800019F010926301B9CA10926401B6CAF999AE
:10179000FECF92BD81BDF89A992780B50895262F76
:1017A000F999FECF1FBA92BD81BD20BD0FB6F89446
:1017B000FA9AF99A0FBE01960895EE0FFF1F059051
:1017C000F491E02D099481E090E0F8940C94E80BFA
:0417D000F894FFCFBB
:1017D400900190010000000028029101BF017502F0
:0A17E400F001CE01E2010D0A000041
:00000001FF
